:100000000C9463000C948B000C948B000C948B006C
:100010000C948B000C948B000C948B000C94580661
:100020000C948B000C948B000C948B000C942B0A7A
:100030000C948B000C948B000C948B000C948B0014
:100040000C949D040C948B000C9468090C94420948
:100050000C948B000C948B000C948B000C948B00F4
:100060000C94EC0A0C948B00000000002400270084
:100070002A0000000000250028002B0000000008D6
:10008000000201000003040700000000000000005F
:1000900000000000230026002900040404040404D6
:1000A0000404020202020202030303030303010227
:1000B00004081020408001020408102001020408F6
:1000C000102002001A0C11241FBECFEFD8E0DEBFB3
:1000D000CDBF11E0A0E0B1E0E4EDF1E202C0059097
:1000E0000D92A837B107D9F722E0A8E7B1E001C027
:1000F0001D92AC3EB207E1F710E0C3E6D0E004C0C9
:100100002197FE010E94DD10C236D107C9F70E9477
:10011000C10C0C94E8100C9400008F929F92AF9247
:10012000BF92CF92DF92EF92FF92CF93DF93A09195
:100130005602882311F03A2F01C030E08091570217
:1001400090E0880F991F80579F4FC0905C02D0901D
:100150005D02E0905E02F0905F0240E050E0BA0184
:10016000FC01C591D49128812A2323130FC04A0191
:100170005B012FEF821A920AA20AB20A4C155D05A2
:100180006E057F0538F4B501A401EACF342F252F81
:10019000CB0104C030E020E080E090E0632F722FBC
:1001A000DF91CF91FF90EF90DF90CF90BF90AF9015
:1001B0009F908F900895833081F028F4813099F0DA
:1001C0008230A1F008958730A9F08830B9F08430EA
:1001D000D1F4809180008F7D03C0809180008F7763
:1001E00080938000089584B58F7702C084B58F7D99
:1001F00084BD08958091B0008F7703C08091B000D6
:100200008F7D8093B0000895CF93DF93282F30E047
:10021000F901E458FF4F8491F901E255FF4FD49161
:10022000F901E656FF4FC491CC2391F081110E9451
:10023000DB00EC2FF0E0EE0FFF1FE057FF4FA59122
:10024000B491EC91ED2381E090E021F480E002C0D4
:1002500080E090E0DF91CF9108953FB7F8948091CE
:100260003B0290913C02A0913D02B0913E0226B526
:10027000A89B05C02F3F19F00196A11DB11D3FBFDE
:10028000BA2FA92F982F8827820F911DA11DB11D6C
:10029000BC01CD0142E0660F771F881F991F4A9568
:1002A000D1F708958F929F92AF92BF92CF92DF9233
:1002B000EF92FF926B017C010E942D014B015C01CA
:1002C000C114D104E104F104F1F00E942D01DC011C
:1002D000CB0188199909AA09BB09883E9340A10559
:1002E000B10570F321E0C21AD108E108F10888EEE7
:1002F000880E83E0981EA11CB11CC114D104E10436
:10030000F10419F7DDCFFF90EF90DF90CF90BF9011
:10031000AF909F908F900895009769F0FC01019035
:100320000020E9F73197AF01481B590BBC0188E762
:1003300091E00C94E70480E090E00895CF93DF9380
:100340000E948C01EC0185E291E00E948C018C0FEF
:100350009D1FDF91CF9108958F929F92AF92BF9290
:100360000F931F93CF93DF93CDB7DEB7A1970FB64F
:10037000F894DEBF0FBECDBF19A2423008F44AE0A8
:100380008E010F5D1F4F842E912CA12CB12CA50145
:1003900094010E94640EE62FB901CA0101501109AF
:1003A000EA3014F4E05D01C0E95CD801EC93232B42
:1003B000242B252B61F7C8010E948C01A1960FB652
:1003C000F894DEBF0FBECDBFDF91CF911F910F918B
:1003D000BF90AF909F908F900895CF93DF93EB01E4
:1003E000BC0164527A4F84E692E00E949A098CED37
:1003F00095E0BC016C1B7D0B81E692E00E949A099E
:1004000064E170E080E090E0DF91CF910C945201C4
:100410004F925F926F927F928F929F92AF92BF9214
:10042000CF92DF92EF92FF926B017C01B42E9B0181
:10043000AC010E94CC10882319F088E291E027C01B
:1004400026013701E89477F82FEF3FEF4FE75FE79A
:10045000C301B2010E94CC1081110DC02FEF3FEFFC
:100460004FE75FE7C301B2010E94020F18161CF4A8
:100470008CE291E00CC02FEF3FEF4FE75FE4C70144
:10048000B6010E945A10181684F480E391E0FF90A0
:10049000EF90DF90CF90BF90AF909F908F907F9024
:1004A0006F905F904F900C948C012FEF3FEF4FE7D0
:1004B0005FECC701B6010E94020F87FDE6CF20E086
:1004C00030E0A901C701B6010E94020F87FF11C0E9
:1004D000E0917801F09179010190F081E02D6DE2D9
:1004E00088E791E009954C01F7FAF094F7F8F09459
:1004F00002C0812C912CA12C60E070E080E09FE391
:10050000AB1441F020E030E040E251E40E94070FDC
:10051000A394F6CF9B01AC01C701B6010E94960ED1
:100520002B013C010E94790F6B017C010E94A80FF6
:100530009B01AC01C301B2010E94950E2B013C014D
:100540004AE0C701B6010E94AC017C01E80CF91C2D
:10055000BB2069F0E0917801F09179010190F08180
:10056000E02D6EE288E791E00995E80EF91EDB2C9C
:10057000DD2021F120E030E040E251E4C301B2018E
:100580000E945F102B013C010E94790F4B01A12CAE
:10059000B12C4AE0C501B4010E94AC01E80EF91E7D
:1005A000C501B4010E94A80F9B01AC01C301B201B7
:1005B0000E94950E2B013C01DA94DACFC701FF901F
:1005C000EF90DF90CF90BF90AF909F908F907F90F3
:1005D0006F905F904F9008951F93CF93DF93282FD4
:1005E00030E0F901E458FF4F8491F901E255FF4FE3
:1005F000D491F901E656FF4FC491CC23C9F0162FD0
:1006000081110E94DB00EC2FF0E0EE0FFF1FEE588F
:10061000FF4FA591B4918FB7F894111105C09C912B
:10062000ED2FE095E92302C0EC91ED2BEC938FBF09
:10063000DF91CF911F910895CF93DF9390E0FC015C
:10064000E255FF4F2491FC01E656FF4F8491882329
:1006500061F190E0880F991FFC01E859FF4FC591A7
:10066000D491FC01EE58FF4FA591B491611109C0DE
:100670009FB7F8948881209582238883EC912E235C
:100680000BC0623061F49FB7F8943881822F809557
:1006900083238883EC912E2B2C939FBF06C08FB7AA
:1006A000F894E8812E2B28838FBFDF91CF91089596
:1006B000CF92DF92EF92FF920F931F93CF93DF932E
:1006C000CDB7DEB7C054D1400FB6F894DEBF0FBE31
:1006D000CDBF2FB7F89480913F0290914002A09136
:1006E0004102B09142022FBF4091580250915902ED
:1006F00060915A0270915B028C019D01041B150BE5
:10070000260B370BB901A801403D57406105710523
:1007100018F480916002BCC08093580290935902F3
:10072000A0935A02B0935B021092530210925202AD
:10073000109251021092500210924F0261E080918B
:1007400054020E94EC026AEF70E080E090E00E94A8
:10075000520161E0809154020E941C0360E080918C
:1007600054020E94EC0264E170E080E090E00E949C
:100770005201F89461E0809154020E94EC028BE9EE
:1007800090E00197F1F762E0809154020E941C030F
:1007900083E290E00197F1F780E00E948D00672BE3
:1007A000682B692B21F41092600278943EC081E09E
:1007B0000E948D00672B682B692BA9F38E010F5FB8
:1007C0001F4F6E012FEBC21A2EEFD20A780180E084
:1007D0000E948D00F701608371838283938381E09F
:1007E0000E948D00F7016483758386839783F8E008
:1007F000EF0EF11CEC14FD0451F7789420E030E08A
:10080000F8014081518162817381C480D580E68086
:10081000F780411551056105710529F0C114D10416
:10082000E104F10421F41092600280E031C0F9018A
:1008300083E0F595E7958A95E1F7E15BFD4F8081CF
:10084000880F4C155D056E057F0508F48160808377
:100850002F5F3F4F085F1F4F2832310589F62091E7
:10086000530230E040914F028091500290E0840F9B
:10087000911D40915102840F911D40915202840FAD
:10088000911D99272817390771F681E0809360023E
:10089000C05CDE4F0FB6F894DEBF0FBECDBFDF9158
:1008A000CF911F910F91FF90EF90DF90CF9008951F
:1008B000CF92DF92EF92FF920E9458038823A1F11A
:1008C000809155028B3041F178F18551823060F58D
:1008D00060914F0270E080E090E00E94A80F20E05D
:1008E00030E040E853E40E945F106B017C0180918E
:1008F0005002682F70E080E090E00E94AA0F9B01F8
:10090000AC01C701B6010E94960E2DEC3CEC4CECFC
:100910005DE30E945F100CC060914F0270E080E0C8
:1009200090E00E94A80F04C060E070E080EC9FE7B8
:10093000FF90EF90DF90CF9008951F920F920FB627
:100940000F9211242F933F938F939F93AF93BF9355
:1009500080913F0290914002A0914102B0914202E9
:1009600030913A0223E0230F2D3720F40196A11D88
:10097000B11D05C026E8230F0296A11DB11D2093CD
:100980003A0280933F0290934002A0934102B093B9
:10099000420280913B0290913C02A0913D02B091B5
:1009A0003E020196A11DB11D80933B0290933C0233
:1009B000A0933D02B0933E02BF91AF919F918F9162
:1009C0003F912F910F900FBE0F901F901895CF92CF
:1009D000DF92EF92FF920F931F93CF93DF936C01FF
:1009E0007A018B01C0E0D0E0CE15DF0589F0D80197
:1009F0006D918D01D601ED91FC910190F081E02D7A
:100A0000C6010995892B11F47E0102C02196ECCF15
:100A1000C701DF91CF911F910F91FF90EF90DF9071
:100A2000CF900895FC01538D448D252F30E0842F05
:100A300090E0821B930B541710F0CF960895019706
:100A40000895FC01918D828D981761F0828DDF01F0
:100A5000A80FB11D5D968C91928D9F5F9F73928FB1
:100A600090E008958FEF9FEF0895FC01918D828DA6
:100A7000981731F0828DE80FF11D858D90E0089573
:100A80008FEF9FEF0895FC01918D228D892F90E0CB
:100A9000805C9F4F821B91098F739927089588E787
:100AA00091E00E94430521E0892B09F420E0822F88
:100AB0000895FC01848DDF01A80FB11DA35ABF4F1B
:100AC0002C91848D90E001968F739927848FA6894D
:100AD000B7892C93A089B1898C9180648C93938D74
:100AE000848D981306C00288F389E02D80818F7D64
:100AF00080830895EF92FF920F931F93CF93DF931C
:100B0000EC0181E0888F9B8D8C8D981305C0E8895E
:100B1000F989808185FD24C0F62E0B8D10E00F5FD2
:100B20001F4F0F731127E02E8C8DE8120CC00FB6EB
:100B300007FCFACFE889F989808185FFF5CFCE01DE
:100B40000E945905F1CF8B8DFE01E80FF11DE35A8C
:100B5000FF4FF0820B8FEA89FB898081806207C09A
:100B6000EE89FF896083E889F989808180648083C8
:100B700081E090E0DF91CF911F910F91FF90EF9076
:100B80000895CF93DF93EC01888D8823C9F0EA891B
:100B9000FB89808185FD05C0A889B9898C9186FD76
:100BA0000FC00FB607FCF5CF808185FFF2CFA88973
:100BB000B9898C9185FFEDCFCE010E945905E7CF11
:100BC000DF91CF91089580E090E0892B29F00E9479
:100BD0004F0581110C940000089508958FEF9FEF49
:100BE00008958FEF9FEF08958091D50290E0919541
:100BF000819591090895089580E090E0089585ED2C
:100C00008093BC008091BC0084FDFCCF1092AF02A9
:100C1000089540918902262F30E0240F311D2132A2
:100C20003105DCF42091AF022430C9F4FC0180E0EE
:100C300090E0861758F4309189022191DC01A9597E
:100C4000BD4FA30FB11D2C930196F3CF8091890264
:100C5000680F6093890280E0089581E0089582E042
:100C60000895CF93DF9300D0CDB7DEB7CB01642FCB
:100C700049835A830E9409064981842F5A81952FFE
:100C80000F900F90DF91CF910895CF93DF931F9234
:100C9000CDB7DEB7698361E0CE0101960E940906F7
:100CA00081E090E00F90DF91CF9108950E94E310D2
:100CB0001F920F920FB60F9211242F933F934F93D1
:100CC0005F936F937F938F939F93AF93BF93EF93B4
:100CD000FF938091E8029091E902A091EA02B0911D
:100CE000EB02892B8A2B8B2B59F18091E702E09143
:100CF000E502F091E6029081892780838091E802E5
:100D00009091E902A091EA02B091EB02181619063F
:100D10001A061B060CF03DC08091E8029091E90292
:100D2000A091EA02B091EB020197A109B109809369
:100D3000E8029093E902A093EA02B093EB0229C083
:100D400080910001E2ECF0E0E4919FEF90930001CC
:100D5000E130B9F098F0E230C9F4909170009D7FD5
:100D60009093700091E09093B0009091B100987FC3
:100D700094609093B1001092B30008C010926E007E
:100D800005C090916F009D7F90936F0060E00E947E
:100D9000EC02FF91EF91BF91AF919F918F917F9165
:100DA0006F915F914F913F912F910F900FBE0F90D8
:100DB0001F9018953F924F925F926F927F928F9201
:100DC0009F92AF92BF92CF92DF92EF92FF920F93DA
:100DD0001F93CF93DF9300D000D0CDB7DEB79091B3
:100DE0000001981721F09F3F09F036C204C0E2ECE1
:100DF000F0E0349081C080930001E2ECF0E0E491F7
:100E0000EF3F09F429C2E13031F1E23009F44BC07F
:100E1000E11171C014BC15BC94B5926094BD95B538
:100E2000916095BDA82FB0E0FD01E656FF4FE4911B
:100E3000F0E0EE0FFF1FEE58FF4F05911491109355
:100E4000DC020093DB02FD01E255FF4FE491E093E9
:100E5000DA02312C53C010928000109281009091E0
:100E600081009860909381009091810091609093AF
:100E70008100A82FB0E0FD01E656FF4FE491F0E0BD
:100E8000EE0FFF1FEE58FF4F059114911093D902FA
:100E90000093D802FD01E255FF4FE491E093D702A1
:100EA000332433942BC01092B0001092B100909173
:100EB000B00092609093B0009091B10091609093D7
:100EC000B100A82FB0E0FD01E656FF4FE491F0E03D
:100ED000EE0FFF1FEE58FF4F059114911093E6029D
:100EE0000093E502FD01E255FF4FE491E093E70234
:100EF00002E0302E03C03E2E37FCAEC129013A017C
:100F00008B0161E00E941C034801A12CB12C832DB0
:100F10008D7F09F0BBC060E072E18AE790E0A50137
:100F200094010E943A0E29833A834B835C836901C2
:100F30007A0121E0C21AD108E108F1088FEFC81642
:100F4000D104E104F10409F008F44CC060E472E457
:100F50008FE090E0A50194010E943A0E69017A01A8
:100F6000E1E0CE1AD108E108F108F2E03F1220C01A
:100F70002FEFC216D104E104F10409F008F46AC1AC
:100F800060E970ED83E090E0A50194010E943A0EC3
:100F900069017A0181E0C81AD108E108F108EFEF90
:100FA000CE16D104E104F10409F0D0F583E067C066
:100FB000FFEFCF16D104E104F104B1F0A8F068E42A
:100FC00078EE81E090E0A50194010E943A0E69015B
:100FD0007A0181E0C81AD108E108F108332009F448
:100FE000DFC02FC181E001C082E03320A1F047C003
:100FF00089819A81AB81BC812AE0B595A7959795A7
:1010000087952A95D1F76C017D0121E0C21AD1089C
:10101000E108F10885E095B5987F892B85BD6FC003
:1010200068E478EE81E090E0A50194010E943A0E18
:1010300069017A01F1E0CF1AD108E108F1082FEF38
:10104000C216D104E104F10409F008F4A7C064E277
:1010500074EF80E090E0A50194010E943A0E6901CE
:101060007A01E1E0CE1AD108E108F108FFEFCF16CE
:10107000D104E104F10411F008F0B4C085E09091CE
:10108000B100987F892B8093B10039C060E072E194
:101090008AE790E0A50194010E943A0E69017A0165
:1010A00081E0C81AD108E108F108C114D104E1E0D7
:1010B000EE06F10488F068E478EE81E090E0A501A6
:1010C00094010E943A0E69017A01F1E0CF1AD10829
:1010D000E108F10893E001C091E021E032120FC075
:1010E00080918100887F892B809381004114510475
:1010F0006104710449F42FEF3FEFA9012DC04114A1
:1011000051046104710471F0D801AA0FBB1FA3013F
:1011100092010E94590E28EE33E040E050E00E9418
:10112000640E03C02FEF3FEFA90181E03816A1F054
:10113000E2E03E1619F131108FC0C7BC2093E102E6
:101140003093E2024093E3025093E40280916E00F8
:10115000826080936E0080C0D0928900C092880027
:101160002093DD023093DE024093DF025093E002D1
:1011700080916F00826080936F006EC0C092B30058
:101180002093E8023093E9024093EA025093EB0285
:10119000809170008260809370005EC084E06FCFA9
:1011A000FFEFCF16D104E104F104D1F0C8F062E101
:1011B0007AE780E090E0A50194010E943A0E69016F
:1011C0007A0181E0C81AD108E108F108EFEFCE16E4
:1011D000D104E104F10411F008F00ACF84E01BCF40
:1011E00083E019CF62E17AE780E090E0A501940105
:1011F0000E943A0E69017A0181E0C81AD108E1081B
:10120000F108EFEFCE16D104E104F104C1F0B8F01B
:1012100089819A81AB81BC814AE0B595A795979564
:1012200087954A95D1F76C017D0121E0C21AD1085A
:10123000E108F108332009F4EDCE87E020CF86E005
:10124000D4CEFFEFCF16D104E104F10409F050F63B
:1012500084E0CBCE82E013CF0F900F900F900F90D1
:10126000DF91CF911F910F91FF90EF90DF90CF9082
:10127000BF90AF909F908F907F906F905F904F90B6
:101280003F9008951F920F920FB60F9211242F9343
:101290003F934F935F936F937F938F939F93AF93FE
:1012A000BF93EF93FF9388E791E00E945905FF9168
:1012B000EF91BF91AF919F918F917F916F915F91CE
:1012C0004F913F912F910F900FBE0F901F90189547
:1012D0001F920F920FB60F9211242F938F939F930B
:1012E000EF93FF93E0918801F09189018081E09173
:1012F0008E01F0918F0182FD12C090818091910149
:101300008F5F8F7320919201821751F0E0919101CC
:10131000F0E0E858FE4F958F8093910101C08081E5
:10132000FF91EF919F918F912F910F900FBE0F9092
:101330001F901895FC0190819C3080F5818128E8F0
:1013400030E0281B310987FD3395220F331F220F10
:10135000331F621773077CF0828128E532E0281B77
:10136000310987FD3395220F331F220F331F621778
:1013700073070CF49B0122503109220F331F4FB722
:10138000F894892F90E0FC01EE0FFF1F8E0F9F1F36
:10139000FC01EB5EFD4F328321834FBF08951F9305
:1013A000CF93DF93EC01162F88818C3008F04EC06C
:1013B00061E0812F0E941C038881E82FF0E09F01EB
:1013C000220F331FE20FF31FEB5EFD4F1F7390815F
:1013D000907C192B108319821A826CE00E94D11024
:1013E0009CE0899FB001112440E050E09A01260F53
:1013F000371FF901EE0FFF1F2E0F3F1FF901EB5EA4
:10140000FD4F908196FD16C04F5F5F4F4C305105E8
:1014100069F781110FC01092800082E080938100F3
:101420001092850010928400B19A80916F008260C2
:1014300080936F00E881F0E0CF01880F991FE80FDB
:10144000F91FEB5EFD4F8081806480838881DF918E
:10145000CF911F9108951F920F920FB60F921124F2
:101460002F933F934F935F936F937F938F939F93AC
:10147000AF93BF93EF93FF938091D60287FF05C090
:1014800010928500109284001BC02091D602022E7B
:10149000000C330B8091390290E02817390784F44F
:1014A0008091D602082E000C990BFC01EE0FFF1F55
:1014B0008E0F9F1FFC01EB5EFD4F808186FD15C0E6
:1014C0008091D6028F5F8093D6022091D602022EA1
:1014D000000C330B8091390290E028173907C4F4CF
:1014E0008091D6028C3064F113C08091D602082E10
:1014F000000C990BFC01EE0FFF1F8E0F9F1FFC01CC
:10150000EB5EFD4F808160E08F730E94EC02D8CFCC
:101510008091840090918500049680349C4918F451
:1015200080E49CE905C08091840090918500049638
:1015300090938900809388008FEF8093D6023BC000
:1015400020918400309185008091D602082E000CF5
:10155000990BFC01EE0FFF1F8E0F9F1FFC01EB5E2E
:10156000FD4F81819281820F931F90938900809318
:1015700088008091D602082E000C990BFC01EE0F1A
:10158000FF1F8E0F9F1FFC01EB5EFD4F808186FFCA
:1015900012C08091D602082E000C990BFC01EE0FB0
:1015A000FF1F8E0F9F1FFC01EB5EFD4F808161E0EE
:1015B0008F730E94EC02FF91EF91BF91AF919F91C9
:1015C0008F917F916F915F914F913F912F910F90EC
:1015D0000FBE0F901F9018951F920F920FB60F928B
:1015E00011242F933F934F935F936F937F938F9328
:1015F0009F93AF93BF93EF93FF938091B900887F40
:10160000803609F49CC068F5883209F45BC090F418
:10161000803109F454C038F4882309F4F6C08830C6
:1016200009F44DC0F6C0883109F44CC0803209F489
:101630005DC0EFC0803409F468C048F4803309F419
:1016400055C0883309F0E5C08093AE02D8C080351C
:1016500009F44FC0883509F45DC0883409F0D9C059
:10166000D6C0883909F4C7C0A8F4883709F467C020
:1016700038F4883609F463C0803709F460C0C9C003
:10168000883809F4B8C0803909F45FC0803809F09F
:10169000C0C05BC0803B09F486C038F4803A09F4CE
:1016A00066C0883A09F47FC0B4C0803C09F4A7C082
:1016B000883C09F4A4C0883B09F48AC0AAC0809180
:1016C000D40210C09091D3028091D202981770F585
:1016D000E091D30281E08E0F8093D302F0E0EE54CC
:1016E000FD4F80818093BB0085EC86C08093AE0265
:1016F0008EC0E091D30281E08E0F8093D30280915F
:10170000BB00F0E0EE54FD4F80839091D3028091B6
:10171000D2026EC0E091D30281E08E0F8093D3029B
:101720008091BB00F0E0EE54FD4F80838091B102C8
:1017300081116DC081E08093B00284EA61C083E0D2
:101740008093AF021092AD02CFCF8091AD02803274
:1017500008F051C0E091AD0281E08E0F8093AD02A0
:101760008091BB00F0E0E357FD4F8083BDCF85EC57
:101770008093BC001092AF028091AD02803230F4B1
:10178000E091AD02F0E0E357FD4F10826091AD02B1
:1017900070E0E0918B02F0918C028DE892E0099567
:1017A0001092AD0236C084E08093AF0210928A029C
:1017B00010928902E0918702F09188020995809148
:1017C0008902811105C081E080938902109267022D
:1017D000E0918A0281E08E0F80938A02F0E0E9595D
:1017E000FD4F80818093BB0090918A028091890295
:1017F000981708F479CF85E88093BC000AC085EC7F
:101800008093BC001092AF0204C01092AE020E94FE
:10181000FF05FF91EF91BF91AF919F918F917F91C4
:101820006F915F914F913F912F910F900FBE0F904D
:101830001F90189510927B0110927A0188EE93E028
:10184000A0E0B0E080937C0190937D01A0937E01A5
:10185000B0937F0125E031E0309379012093780146
:1018600025EC30E0309385012093840124EC30E0B6
:10187000309387012093860120EC30E0309389017A
:101880002093880121EC30E030938B0120938A0172
:1018900022EC30E030938D0120938C0126EC30E077
:1018A00030938F0120938E0110929101109292013A
:1018B00010929301109294011092460210924502E8
:1018C0008093470290934802A0934902B0934A0242
:1018D00087E191E090934402809343028091390222
:1018E0008C30A0F491E0980F9093390280936402B9
:1018F00090E0FC01EE0FFF1F8E0F9F1FFC01EB5EBF
:10190000FD4F88EB9BE09283818303C08FEF809330
:101910006402809139028C30A0F491E0980F90938A
:1019200039028093610290E0FC01EE0FFF1F8E0FE1
:101930009F1FFC01EB5EFD4F88EB9BE09283818350
:1019400003C08FEF8093610286E08093540286E1AA
:1019500080935502E4EBF0E0E491E0935602E0EA74
:10196000F0E0E491E093570280E89EE3A0E0B0E06D
:1019700080935C0290935D02A0935E02B0935F023D
:101980000895789484B5826084BD84B5816084BDF7
:1019900085B5826085BD85B5816085BD80916E000D
:1019A000816080936E00109281008091810082603E
:1019B000809381008091810081608093810080917B
:1019C00080008160809380008091B100846080936A
:1019D000B1008091B00081608093B00080917A0066
:1019E000846080937A0080917A00826080937A008C
:1019F00080917A00816080937A0080917A0080687B
:101A000080937A001092C100E0918801F0918901E1
:101A100082E08083E0918401F09185011082E09161
:101A20008601F09187018FEC808310929001E09104
:101A30008C01F0918D0186E08083E0918A01F09124
:101A40008B01808180618083E0918A01F0918B011C
:101A5000808188608083E0918A01F0918B01808190
:101A600080688083E0918A01F0918B0180818F7D75
:101A7000808384E391E00E949E0162E080915402A1
:101A80000E941C0380E398EFAFEFBFEF80935802F2
:101A900090935902A0935A02B0935B0260E08AE0EF
:101AA0000E941C0361E089E00E941C0360E083E067
:101AB0000E941C0361E082E00E941C0361E087E059
:101AC0000E941C0328EE33E040E050E068EB7BE02E
:101AD00084E00E94DA0668EE73E080E090E00E9405
:101AE00052016DE070E084E692E00E94CF096CE064
:101AF00070E081E692E00E94CF090E9458044B01F9
:101B00005C010E945803882309F441C0809155026A
:101B10008B3029F0E0F18551823058F038C0609167
:101B2000510270E080E090E00E94A80F6B017C0100
:101B300034C0C09151026C2F6F7770E080E090E06C
:101B40000E94AA0F20E030E040E853E40E945F10BA
:101B50006B017C0180915202682F70E080E090E080
:101B60000E94AA0F9B01AC01C701B6010E94960E0C
:101B70002DEC3CEC4CEC5DE30E945F106B017C01B2
:101B8000C7FF0BC0F7FAF094F7F8F09406C0C12C29
:101B9000D12C80ECE82E8FE7F82E83E591E00E94AF
:101BA0008C0142E0C501B4010E9408028EE591E07B
:101BB0000E949E0180E691E00E948C0142E0C701F4
:101BC000B6010E9408028EE691E00E949E010E94EA
:101BD000580420E030E048EC51E40E945A101816F6
:101BE00024F461E087E00E94EC0228E030E040E06D
:101BF00050E060E774E989E00E94DA0661E070E095
:101C000080E090E00E9452018AE00E9404016C0191
:101C100061E070E080E090E00E94520128E030E056
:101C200040E050E060E774E982E00E94DA0661E09B
:101C300070E080E090E00E94520183E00E94040185
:101C40007C0161E070E080E090E00E945201CD28CC
:101C500019F468E37FEF02C068EC70E0EF2819F434
:101C600088E39FEF02C088EC90E00E94ED010E94A3
:101C7000E30543CF052E97FB1EF400940E94510EFE
:101C800057FD07D00E94640E07FC03D04EF40C945D
:101C9000510E50954095309521953F4F4F4F5F4FD6
:101CA000089590958095709561957F4F8F4F9F4FC8
:101CB00008950E94860EA59F900DB49F900DA49F3D
:101CC000800D911D11240895A1E21A2EAA1BBB1BA1
:101CD000FD010DC0AA1FBB1FEE1FFF1FA217B307F8
:101CE000E407F50720F0A21BB30BE40BF50B661F0E
:101CF000771F881F991F1A9469F7609570958095D2
:101D000090959B01AC01BD01CF010895A29FB00148
:101D1000B39FC001A39F700D811D1124911DB29F1F
:101D2000700D811D1124911D08955058BB27AA27BD
:101D30000E94AD0E0C9420100E94121038F00E94E8
:101D4000191020F039F49F3F19F426F40C940F1069
:101D50000EF4E095E7FB0C940910E92F0E94311076
:101D600058F3BA17620773078407950720F079F4D0
:101D7000A6F50C9453100EF4E0950B2EBA2FA02D5F
:101D80000B01B90190010C01CA01A0011124FF2728
:101D9000591B99F0593F50F4503E68F11A16F04023
:101DA000A22F232F342F4427585FF3CF4695379522
:101DB0002795A795F0405395C9F77EF41F16BA0BE7
:101DC000620B730B840BBAF09150A1F0FF0FBB1F95
:101DD000661F771F881FC2F70EC0BA0F621F731FDE
:101DE000841F48F4879577956795B795F7959E3F3B
:101DF00008F0B0CF9395880F08F09927EE0F9795CC
:101E0000879508950E94E50F08F481E008950E94E7
:101E10001B0F0C9420100E94191058F00E941210F1
:101E200040F029F45F3F29F00C94091051110C94F3
:101E300054100C940F100E94311068F39923B1F3E1
:101E4000552391F3951B550BBB27AA2762177307E0
:101E5000840738F09F5F5F4F220F331F441FAA1F74
:101E6000A9F335D00E2E3AF0E0E832D09150504030
:101E7000E695001CCAF72BD0FE2F29D0660F771FDE
:101E8000881FBB1F261737074807AB07B0E809F0C4
:101E9000BB0B802DBF01FF2793585F4F3AF09E3F49
:101EA000510578F00C9409100C9454105F3FE4F342
:101EB000983ED4F3869577956795B795F7959F5F8C
:101EC000C9F7880F911D9695879597F90895E1E0D8
:101ED000660F771F881FBB1F621773078407BA0737
:101EE00020F0621B730B840BBA0BEE1F88F7E09592
:101EF00008950E94391088F09F5798F0B92F9927BC
:101F0000B751B0F0E1F0660F771F881F991F1AF0E4
:101F1000BA95C9F714C0B13091F00E945310B1E0E6
:101F200008950C945310672F782F8827B85F39F0E5
:101F3000B93FCCF3869577956795B395D9F73EF47D
:101F400090958095709561957F4F8F4F9F4F089525
:101F5000E89409C097FB3EF4909580957095619543
:101F60007F4F8F4F9F4F9923A9F0F92F96E9BB27F9
:101F70009395F695879577956795B795F111F8CF75
:101F8000FAF4BB0F11F460FF1BC06F5F7F4F8F4FE0
:101F90009F4F16C0882311F096E911C0772321F0D6
:101FA0009EE8872F762F05C0662371F096E8862F6E
:101FB00070E060E02AF09A95660F771F881FDAF7C5
:101FC000880F9695879597F90895990F0008550FF2
:101FD000AA0BE0E8FEEF16161706E807F907C0F0AF
:101FE00012161306E407F50798F0621B730B840BB7
:101FF000950B39F40A2661F0232B242B252B21F491
:1020000008950A2609F4A140A6958FEF811D811D30
:10201000089597F99F6780E870E060E008959FEF6A
:1020200080EC089500240A9416161706180609066F
:10203000089500240A94121613061406050608953E
:10204000092E0394000C11F4882352F0BB0F40F4C6
:10205000BF2B11F460FF04C06F5F7F4F8F4F9F4F06
:10206000089557FD9058440F551F59F05F3F71F088
:102070004795880F97FB991F61F09F3F79F08795EF
:102080000895121613061406551FF2CF4695F1DF78
:1020900008C0161617061806991FF1CF8695710508
:1020A000610508940895E894BB2766277727CB013C
:1020B00097F908950E94E50F08F48FEF08950E94A4
:1020C00072100C9420100E94121038F00E94191007
:1020D00020F0952311F00C9409100C940F1011248A
:1020E0000C9454100E94311070F3959FC1F3950F1A
:1020F00050E0551F629FF001729FBB27F00DB11D8C
:10210000639FAA27F00DB11DAA1F649F6627B00D1B
:10211000A11D661F829F2227B00DA11D621F739F04
:10212000B00DA11D621F839FA00D611D221F749F12
:102130003327A00D611D231F849F600D211D822F59
:10214000762F6A2F11249F5750409AF0F1F0882380
:102150004AF0EE0FFF1FBB1F661F771F881F9150AD
:102160005040A9F79E3F510580F00C9409100C9443
:1021700054105F3FE4F3983ED4F3869577956795C6
:10218000B795F795E7959F5FC1F7FE2B880F911DD7
:102190009695879597F908950E94E50F880B990BFE
:1021A0000895991B79E004C0991F961708F0961BB3
:1021B000881F7A95C9F780950895EE0FFF1F059047
:1021C000F491E02D099481E090E0F8940C94E810EB
:0421D000F894FFCFB1
:1021D400FF000000007A05E7041205C1054305214C
:1021E4000535050000000045063106FC05ED05F443
:1021F40005F105EE050D0A006E616E00696E66005C
:102204006F76660048756D69646974792F54656DDD
:1022140070657261747572652052656164696E6778
:10222400733A0048756D69646974793A2000250031
:1022340054656D70657261747572653A200020642E
:08224400656772656573000017
:00000001FF
