:100000000C9463000C948B000C948B000C948B006C
:100010000C948B000C948B000C948B000C94410876
:100020000C948B000C948B000C948B000C941B098B
:100030000C948B000C948B000C948B000C948B0014
:100040000C94F7070C948B000C94E9080C94C308EB
:100050000C948B000C948B000C948B000C948B00F4
:100060000C94DC090C948B00020000000024002793
:10007000002A0000000000250028002B00000000DE
:100080000800020100000304070000000000000057
:1000900000000000002300260029000404040404DA
:1000A0000404040202020202020303030303030125
:1000B00002040810204080010204081020010204FC
:1000C000081020000A0B11241FBECFEFD8E0DEBFBE
:1000D000CDBF11E0A0E0B1E0EEE4FEE102C005908A
:1000E0000D92A834B107D9F722E0A8E4B1E001C02D
:1000F0001D92AC3BB207E1F710E0C3E6D0E004C0CC
:100100002197FE010E941A0FC236D107C9F70E943B
:10011000B10B0C94250F0C9400008F929F92AF921C
:10012000BF92CF92DF92EF92FF92CF93DF93A09195
:10013000AB02882311F03A2F01C030E08091AC026D
:1001400090E0880F991F8F569F4FC090B102D090BA
:10015000B202E090B302F090B40240E050E0BA0185
:10016000FC01C591D49128812A2323130FC04A0191
:100170005B012FEF821A920AA20AB20A4C155D05A2
:100180006E057F0538F4B501A401EACF342F252F81
:10019000CB0104C030E020E080E090E0632F722FBC
:1001A000DF91CF91FF90EF90DF90CF90BF90AF9015
:1001B0009F908F900895833081F028F4813099F0DA
:1001C0008230A1F008958730A9F08830B9F08430EA
:1001D000D1F4809180008F7D03C0809180008F7763
:1001E00080938000089584B58F7702C084B58F7D99
:1001F00084BD08958091B0008F7703C08091B000D6
:100200008F7D8093B0000895CF93DF93282F30E047
:10021000F901E358FF4F8491F901E155FF4FD49163
:10022000F901E556FF4FC491CC2391F081110E9452
:10023000DB00EC2FF0E0EE0FFF1FEF56FF4FA59114
:10024000B491EC91ED2381E090E021F480E002C0D4
:1002500080E090E0DF91CF9108951F93CF93DF93DB
:10026000282F30E0F901E358FF4F8491F901E1555F
:10027000FF4FD491F901E556FF4FC491CC23C9F04B
:10028000162F81110E94DB00EC2FF0E0EE0FFF1F14
:10029000ED58FF4FA591B4918FB7F894111105C097
:1002A0009C91ED2FE095E92302C0EC91ED2BEC93AE
:1002B0008FBFDF91CF911F910895CF93DF9390E08F
:1002C000FC01E155FF4F2491FC01E556FF4F84915D
:1002D000882361F190E0880F991FFC01E759FF4FD7
:1002E000C591D491FC01ED58FF4FA591B4916111D6
:1002F00009C09FB7F8948881209582238883EC9168
:100300002E230BC0623061F49FB7F8943881822F9E
:10031000809583238883EC912E2B2C939FBF06C05E
:100320008FB7F894E8812E2B28838FBFDF91CF9170
:1003300008953FB7F8948091CE019091CF01A0919C
:10034000D001B091D10126B5A89B05C02F3F19F06F
:100350000196A11DB11D3FBFBA2FA92F982F882745
:10036000820F911DA11DB11DBC01CD0142E0660FA0
:10037000771F881F991F4A95D1F708958F929F92F2
:10038000AF92BF92CF92DF92EF92FF926B017C010E
:100390000E9499014B015C01C114D104E104F104F4
:1003A000F1F00E949901DC01CB0188199909AA0991
:1003B000BB09883E9340A105B10570F321E0C21A44
:1003C000D108E108F10888EE880E83E0981EA11C90
:1003D000B11CC114D104E104F10419F7DDCFFF9081
:1003E000EF90DF90CF90BF90AF909F908F90089547
:1003F000CF92DF92EF92FF920F931F93CF93DF93F1
:10040000CDB7DEB7C054D1400FB6F894DEBF0FBEF3
:10041000CDBF2FB7F8948091D2019091D301A091D4
:10042000D401B091D5012FBF4091AD025091AE02E1
:100430006091AF027091B0028C019D01041B150BFD
:10044000260B370BB901A801403D574061057105E6
:1004500018F48091B502BCC08093AD029093AE02B7
:10046000A093AF02B093B0021092A8021092A7021C
:100470001092A6021092A5021092A40261E080914F
:10048000A9020E942D016AEF70E080E090E00E94D6
:10049000BE0161E08091A9020E945D0160E080914F
:1004A000A9020E942D0164E170E080E090E00E94CA
:1004B000BE01F89461E08091A9020E942D018BE9B0
:1004C00090E00197F1F762E08091A9020E945D013E
:1004D00083E290E00197F1F780E00E948D00672BA6
:1004E000682B692B21F41092B50278943EC081E00C
:1004F0000E948D00672B682B692BA9F38E010F5F7B
:100500001F4F6E012FEBC21A2EEFD20A780180E046
:100510000E948D00F701608371838283938381E061
:100520000E948D00F7016483758386839783F8E0CA
:10053000EF0EF11CEC14FD0451F7789420E030E04C
:10054000F8014081518162817381C480D580E68049
:10055000F780411551056105710529F0C114D104D9
:10056000E104F10421F41092B50280E031C0F901F8
:1005700083E0F595E7958A95E1F7EC55FD4F80818D
:10058000880F4C155D056E057F0508F4816080833A
:100590002F5F3F4F085F1F4F2832310589F62091AA
:1005A000A80230E04091A4028091A50290E0840F5F
:1005B000911D4091A602840F911D4091A702840FC6
:1005C000911D99272817390771F681E08093B502AC
:1005D000C05CDE4F0FB6F894DEBF0FBECDBFDF911B
:1005E000CF911F910F91FF90EF90DF90CF900895E2
:1005F0003F924F925F926F927F928F929F92AF92B3
:10060000BF92CF92DF92EF92FF920F931F93CF93FF
:10061000DF9300D000D0CDB7DEB7909100019817DE
:1006200021F09F3F09F036C204C0E8E6F0E03490C4
:1006300081C080930001E8E6F0E0E491EF3F09F427
:1006400029C2E13031F1E23009F44BC0E11171C04F
:1006500014BC15BC94B5926094BD95B5916095BDE0
:10066000A82FB0E0FD01E556FF4FE491F0E0EE0F5A
:10067000FF1FED58FF4F059114911093BD0100939A
:10068000BC01FD01E155FF4FE491E093BB01312C2A
:1006900053C0109280001092810090918100986068
:1006A0009093810090918100916090938100A82F98
:1006B000B0E0FD01E556FF4FE491F0E0EE0FFF1FC3
:1006C000ED58FF4F059114911093BA010093B901B1
:1006D000FD01E155FF4FE491E093B80133243394D9
:1006E0002BC01092B0001092B1009091B0009260B7
:1006F0009093B0009091B10091609093B100A82FB9
:10070000B0E0FD01E556FF4FE491F0E0EE0FFF1F72
:10071000ED58FF4F059114911093C7010093C60146
:10072000FD01E155FF4FE491E093C80102E0302E56
:1007300003C03E2E37FCAEC129013A018B0161E0B6
:100740000E945D014801A12CB12C832D8D7F09F001
:10075000BBC060E072E18AE790E0A50194010E94CD
:10076000220D29833A834B835C8369017A0121E05E
:10077000C21AD108E108F1088FEFC816D104E104CC
:10078000F10409F008F44CC060E472E48FE090E0FA
:10079000A50194010E94220D69017A01E1E0CE1ABF
:1007A000D108E108F108F2E03F1220C02FEFC21695
:1007B000D104E104F10409F008F46AC160E970EDC4
:1007C00083E090E0A50194010E94220D69017A0165
:1007D00081E0C81AD108E108F108EFEFCE16D10484
:1007E000E104F10409F0D0F583E067C0FFEFCF1614
:1007F000D104E104F104B1F0A8F068E478EE81E0FE
:1008000090E0A50194010E94220D69017A0181E026
:10081000C81AD108E108F108332009F4DFC02FC15C
:1008200081E001C082E03320A1F047C089819A8134
:10083000AB81BC812AE0B595A795979587952A95B8
:10084000D1F76C017D0121E0C21AD108E108F1085D
:1008500085E095B5987F892B85BD6FC068E478EEFB
:1008600081E090E0A50194010E94220D69017A01C6
:10087000F1E0CF1AD108E108F1082FEFC216D10438
:10088000E104F10409F008F4A7C064E274EF80E029
:1008900090E0A50194010E94220D69017A01E1E036
:1008A000CE1AD108E108F108FFEFCF16D104E10418
:1008B000F10411F008F0B4C085E09091B100987F88
:1008C000892B8093B10039C060E072E18AE790E043
:1008D000A50194010E94220D69017A0181E0C81AE4
:1008E000D108E108F108C114D104E1E0EE06F104F9
:1008F00088F068E478EE81E090E0A50194010E9420
:10090000220D69017A01F1E0CF1AD108E108F1085E
:1009100093E001C091E021E032120FC0809181008C
:10092000887F892B809381004114510461047104F4
:1009300049F42FEF3FEFA9012DC041145104610488
:10094000710471F0D801AA0FBB1FA30192010E948C
:10095000410D28EE33E040E050E00E944C0D03C012
:100960002FEF3FEFA90181E03816A1F0E2E03E163B
:1009700019F131108FC0C7BC2093C2013093C3015D
:100980004093C4015093C50180916E0082608093B2
:100990006E0080C0D0928900C09288002093BE0172
:1009A0003093BF014093C0015093C10180916F000B
:1009B000826080936F006EC0C092B3002093C90123
:1009C0003093CA014093CB015093CC0180917000C9
:1009D0008260809370005EC084E06FCFFFEFCF161F
:1009E000D104E104F104D1F0C8F062E17AE780E0DB
:1009F00090E0A50194010E94220D69017A0181E035
:100A0000C81AD108E108F108EFEFCE16D104E104CD
:100A1000F10411F008F00ACF84E01BCF83E019CF76
:100A200062E17AE780E090E0A50194010E94220D46
:100A300069017A0181E0C81AD108E108F108EFEFF5
:100A4000CE16D104E104F104C1F0B8F089819A8195
:100A5000AB81BC814AE0B595A795979587954A9556
:100A6000D1F76C017D0121E0C21AD108E108F1083B
:100A7000332009F4EDCE87E020CF86E0D4CEFFEF1F
:100A8000CF16D104E104F10409F050F684E0CBCE96
:100A900082E013CF0F900F900F900F90DF91CF91C6
:100AA0001F910F91FF90EF90DF90CF90BF90AF908C
:100AB0009F908F907F906F905F904F903F900895A0
:100AC000CF92DF92EF92FF920F931F93CF93DF931A
:100AD0006C017A018B01C0E0D0E0CE15DF0589F012
:100AE000D8016D918D01D601ED91FC910190F081BD
:100AF000E02DC6010995892B11F47E0102C02196D3
:100B0000ECCFC701DF91CF911F910F91FF90EF9034
:100B1000DF90CF900895FC01538D448D252F30E058
:100B2000842F90E0821B930B541710F0CF960895FA
:100B300001970895FC01918D828D981761F0828D47
:100B4000DF01A80FB11D5D968C91928D9F5F9F7301
:100B5000928F90E008958FEF9FEF0895FC01918DA3
:100B6000828D981731F0828DE80FF11D858D90E010
:100B700008958FEF9FEF0895FC01918D228D892FAD
:100B800090E0805C9F4F821B91098F739927089595
:100B900086ED91E00E94BC0521E0892B09F420E05C
:100BA000822F0895FC01848DDF01A80FB11DA35A87
:100BB000BF4F2C91848D90E001968F739927848F7D
:100BC000A689B7892C93A089B1898C9180648C9374
:100BD000938D848D981306C00288F389E02D80815F
:100BE0008F7D80830895EF92FF920F931F93CF9391
:100BF000DF93EC0181E0888F9B8D8C8D981305C06D
:100C0000E889F989808185FD24C0F62E0B8D10E0DE
:100C10000F5F1F4F0F731127E02E8C8DE8120CC051
:100C20000FB607FCFACFE889F989808185FFF5CFF7
:100C3000CE010E94D205F1CF8B8DFE01E80FF11D90
:100C4000E35AFF4FF0820B8FEA89FB898081806233
:100C500007C0EE89FF896083E889F9898081806413
:100C6000808381E090E0DF91CF911F910F91FF9001
:100C7000EF900895CF93DF93EC01888D8823C9F01E
:100C8000EA89FB89808185FD05C0A889B9898C9195
:100C900086FD0FC00FB607FCF5CF808185FFF2CF30
:100CA000A889B9898C9185FFEDCFCE010E94D2052C
:100CB000E7CFDF91CF91089580E090E0892B29F074
:100CC0000E94C80581110C9400000895FC019081D8
:100CD0009C3080F5818128E830E0281B310987FDB0
:100CE0003395220F331F220F331F621773077CF0D7
:100CF000828128E532E0281B310987FD3395220FD8
:100D0000331F220F331F621773070CF49B0122500D
:100D10003109220F331F4FB7F894892F90E0FC015F
:100D2000EE0FFF1F8E0F9F1FFC01E158FD4F328316
:100D300021834FBF08951F93CF93DF93EC01162FAC
:100D400088818C3008F04EC061E0812F0E945D01E7
:100D50008881E82FF0E09F01220F331FE20FF31F7D
:100D6000E158FD4F1F739081907C192B10831982DD
:100D70001A826CE00E940E0F9CE0899FB001112442
:100D800040E050E09A01260F371FF901EE0FFF1FD8
:100D90002E0F3F1FF901E158FD4F908196FD16C0BF
:100DA0004F5F5F4F4C30510569F781110FC01092B2
:100DB000800082E080938100109285001092840070
:100DC000B19A80916F00826080936F00E881F0E0BB
:100DD000CF01880F991FE80FF91FE158FD4F80815F
:100DE000806480838881DF91CF911F910895089559
:100DF0008FEF9FEF08958FEF9FEF08958091B601D9
:100E000090E09195819591090895089580E090E092
:100E1000089585ED8093BC008091BC0084FDFCCFDB
:100E200010929001089540916A01262F30E0240F1E
:100E3000311D21323105DCF4209190012430C9F4B8
:100E4000FC0180E090E0861758F430916A0121910E
:100E5000DC01A85BBE4FA30FB11D2C930196F3CF0D
:100E600080916A01680F60936A0180E0089581E0D3
:100E7000089582E00895CF93DF9300D0CDB7DEB719
:100E8000CB01642F49835A830E9413074981842F21
:100E90005A81952F0F900F90DF91CF910895CF93A6
:100EA000DF931F92CDB7DEB7698361E0CE01019673
:100EB0000E94130781E090E00F90DF91CF91089599
:100EC000009769F0FC0101900020E9F73197AF012C
:100ED000481B590BBC0186ED91E00C94600580E045
:100EE00090E008958F929F92AF92BF920F931F93BD
:100EF000CF93DF93CDB7DEB7A1970FB6F894DEBFDF
:100F00000FBECDBF19A2423008F44AE08E010F5D3A
:100F10001F4F842E912CA12CB12CA50194010E946D
:100F20004C0DE62FB901CA0101501109EA3014F441
:100F3000E05D01C0E95CD801EC93232B242B252B29
:100F400061F7C8010E946007A1960FB6F894DEBF52
:100F50000FBECDBFDF91CF911F910F91BF90AF908A
:100F60009F908F900895CF92DF92EF92FF92CF9350
:100F7000DF936B017C01E091D601F091D7010190E4
:100F8000F081E02D6DE286ED91E00995EC01662798
:100F90007727CB016C197D098E099F094AE00E94D1
:100FA00072078C0F9D1FDF91CF91FF90EF90DF9024
:100FB000CF900895CF93DF93EB01BC0164527A4F39
:100FC00089EB92E00E9466068CED95E0BC016C1BFB
:100FD0007D0B86EB92E00E94660664E170E080E0A3
:100FE00090E0DF91CF910C94BE010E94200F1F92E0
:100FF0000F920FB60F9211242F933F938F939F93CD
:10100000AF93BF938091D2019091D301A091D4016D
:10101000B091D5013091CD0123E0230F2D3720F47D
:101020000196A11DB11D05C026E8230F0296A11D42
:10103000B11D2093CD018093D2019093D301A09351
:10104000D401B093D5018091CE019091CF01A091B0
:10105000D001B091D1010196A11DB11D8093CE01A7
:101060009093CF01A093D001B093D101BF91AF91E4
:101070009F918F913F912F910F900FBE0F901F90D6
:1010800018951F920F920FB60F9211242F933F9332
:101090004F935F936F937F938F939F93AF93BF9380
:1010A000EF93FF938091C9019091CA01A091CB0168
:1010B000B091CC01892B8A2B8B2B59F18091C801DF
:1010C000E091C601F091C7019081892780838091CA
:1010D000C9019091CA01A091CB01B091CC01181621
:1010E00019061A061B060CF03DC08091C9019091AB
:1010F000CA01A091CB01B091CC010197A109B1091E
:101100008093C9019093CA01A093CB01B093CC0105
:1011100029C080910001E8E6F0E0E4919FEF909310
:101120000001E130B9F098F0E230C9F4909170001C
:101130009D7F9093700091E09093B0009091B100EA
:10114000987F94609093B1001092B30008C0109201
:101150006E0005C090916F009D7F90936F0060E0DE
:101160000E942D01FF91EF91BF91AF919F918F91BF
:101170007F916F915F914F913F912F910F900FBE93
:101180000F901F9018951F920F920FB60F92112477
:101190002F933F934F935F936F937F938F939F937F
:1011A000AF93BF93EF93FF9386ED91E00E94D2053A
:1011B000FF91EF91BF91AF919F918F917F916F912F
:1011C0005F914F913F912F910F900FBE0F901F9005
:1011D00018951F920F920FB60F9211242F938F9391
:1011E0009F93EF93FF93E091E601F091E7018081F7
:1011F000E091EC01F091ED0182FD12C090818091AF
:10120000EF018F5F8F732091F001821751F0E09111
:10121000EF01F0E0EA52FE4F958F8093EF0101C09D
:101220008081FF91EF919F918F912F910F900FBE31
:101230000F901F9018951F920F920FB60F921124C6
:101240002F933F934F935F936F937F938F939F93CE
:10125000AF93BF93EF93FF938091B70187FF05C0D2
:1012600010928500109284001BC02091B701022EBD
:10127000000C330B8091A30290E02817390784F407
:101280008091B701082E000C990BFC01EE0FFF1F97
:101290008E0F9F1FFC01E158FD4F808186FD15C018
:1012A0008091B7018F5F8093B7012091B701022E23
:1012B000000C330B8091A30290E028173907C4F487
:1012C0008091B7018C3064F113C08091B701082E72
:1012D000000C990BFC01EE0FFF1F8E0F9F1FFC01EE
:1012E000E158FD4F808160E08F730E942D01D8CFBF
:1012F0008091840090918500049680349C4918F474
:1013000080E49CE905C0809184009091850004965A
:1013100090938900809388008FEF8093B7013BC042
:1013200020918400309185008091B701082E000C37
:10133000990BFC01EE0FFF1F8E0F9F1FFC01E15860
:10134000FD4F81819281820F931F9093890080933A
:1013500088008091B701082E000C990BFC01EE0F5C
:10136000FF1F8E0F9F1FFC01E158FD4F808186FFFC
:1013700012C08091B701082E000C990BFC01EE0FF2
:10138000FF1F8E0F9F1FFC01E158FD4F808161E020
:101390008F730E942D01FF91EF91BF91AF919F91AB
:1013A0008F917F916F915F914F913F912F910F900E
:1013B0000FBE0F901F9018951F920F920FB60F92AD
:1013C00011242F933F934F935F936F937F938F934A
:1013D0009F93AF93BF93EF93FF938091B900887F62
:1013E000803609F49CC068F5883209F45BC090F43B
:1013F000803109F454C038F4882309F4F6C08830E9
:1014000009F44DC0F6C0883109F44CC0803209F4AB
:101410005DC0EFC0803409F468C048F4803309F43B
:1014200055C0883309F0E5C080938F01D8C080355E
:1014300009F44FC0883509F45DC0883409F0D9C07B
:10144000D6C0883909F4C7C0A8F4883709F467C042
:1014500038F4883609F463C0803709F460C0C9C025
:10146000883809F4B8C0803909F45FC0803809F0C1
:10147000C0C05BC0803B09F486C038F4803A09F4F0
:1014800066C0883A09F47FC0B4C0803C09F4A7C0A4
:10149000883C09F4A4C0883B09F48AC0AAC08091A2
:1014A000B50110C09091B4018091B301981770F507
:1014B000E091B40181E08E0F8093B401F0E0ED562D
:1014C000FE4F80818093BB0085EC86C080938F01A6
:1014D0008EC0E091B40181E08E0F8093B4018091C1
:1014E000BB00F0E0ED56FE4F80839091B4018091F7
:1014F000B3016EC0E091B40181E08E0F8093B4011E
:101500008091BB00F0E0ED56FE4F80838091920108
:1015100081116DC081E08093910184EA61C083E014
:101520008093900110928E01CFCF80918E018032F6
:1015300008F051C0E0918E0181E08E0F80938E0102
:101540008091BB00F0E0E259FE4F8083BDCF85EC77
:101550008093BC001092900180918E01803230F413
:10156000E0918E01F0E0E259FE4F108260918E0111
:1015700070E0E0916C01F0916D018EE691E00995CB
:1015800010928E0136C084E08093900110926B011E
:1015900010926A01E0916801F091690109958091CA
:1015A0006A01811105C081E080936A0110924801AF
:1015B000E0916B0181E08E0F80936B01F0E0E85BBE
:1015C000FE4F80818093BB0090916B0180916A01F6
:1015D000981708F479CF85E88093BC000AC085ECA1
:1015E0008093BC001092900104C010928F010E9461
:1015F0000907FF91EF91BF91AF919F918F917F91DB
:101600006F915F914F913F912F910F900FBE0F906F
:101610001F9018951092D9011092D80188EE93E08E
:10162000A0E0B0E08093DA019093DB01A093DC01AD
:10163000B093DD0125E031E03093D7012093D6014E
:1016400025EC30E03093E3012093E20124EC30E01C
:101650003093E5012093E40120EC30E03093E70182
:101660002093E60121EC30E03093E9012093E8017A
:1016700022EC30E03093EB012093EA0126EC30E0DD
:101680003093ED012093EC011092EF011092F001E4
:101690001092F1011092F2011092760210927502EE
:1016A0008093770290937802A0937902B0937A02A4
:1016B00087E191E090937402809373028091A3027A
:1016C0008C30A0F491E0980F9093A3028093B9021C
:1016D00090E0FC01EE0FFF1F8E0F9F1FFC01E158F1
:1016E000FD4F88EB9BE09283818303C08FEF809353
:1016F000B9028091A3028C30A0F491E0980F9093EE
:10170000A3028093B60290E0FC01EE0FFF1F8E0F44
:101710009F1FFC01E158FD4F88EB9BE09283818382
:1017200003C08FEF8093B60286E08093A90286E122
:101730008093AA02E5EBF0E0E491E093AB02E1EAEA
:10174000F0E0E491E093AC0280E89EE3A0E0B0E03A
:101750008093B1029093B202A093B302B093B4020B
:101760000895789484B5826084BD84B5816084BD19
:1017700085B5826085BD85B5816085BD80916E002F
:10178000816080936E001092810080918100826060
:10179000809381008091810081608093810080919D
:1017A00080008160809380008091B100846080938C
:1017B000B1008091B00081608093B00080917A0088
:1017C000846080937A0080917A00826080937A00AE
:1017D00080917A00816080937A0080917A0080689D
:1017E00080937A001092C100E091E601F091E70148
:1017F00082E08083E091E201F091E3011082E091C8
:10180000E401F091E5018FEC80831092EE01E0910C
:10181000EA01F091EB0186E08083E091E801F0912C
:10182000E901808180618083E091E801F091E90124
:10183000808188608083E091E801F091E9018081F6
:1018400080688083E091E801F091E90180818F7DDB
:10185000808385E291E00E94600784E491E00E9429
:10186000600762E08091A9020E945D0180E398EF29
:10187000AFEFBFEF8093AD029093AE02A093AF02A3
:10188000B093B00260E08AE00E945D0161E089E00F
:101890000E945D0160E083E00E945D0161E082E002
:1018A0000E945D0161E087E00E945D0128EE33E067
:1018B00040E050E068EB7BE084E00E94F80268EED4
:1018C00073E080E090E00E94BE016DE070E089EB83
:1018D00092E00E949B066CE070E086EB92E00E9432
:1018E0009B060E94F8018823A1F18091AA028B3007
:1018F00041F178F18551823060F56091A40270E089
:1019000080E090E00E94EA0D20E030E040E853E4FF
:101910000E947D0E6B017C018091A502682F70E012
:1019200080E090E00E94EC0D9B01AC01C701B60184
:101930000E947E0D2DEC3CEC4CEC5DE30E947D0E94
:101940000CC06091A40270E080E090E00E94EA0D7B
:1019500004C060E070E080EC9FE720E030E048ECFD
:1019600051E40E94780E181624F461E087E00E948A
:101970002D0128E030E040E050E060E774E989E0C4
:101980000E94F80261E070E080E090E00E94BE01F9
:101990008AE00E9404018C0161E070E080E090E048
:1019A0000E94BE0128E030E040E050E060E774E9CA
:1019B00082E00E94F80261E070E080E090E00E9426
:1019C000BE0183E00E940401EC0161E070E080E070
:1019D00090E00E94BE0164E670E080E090E00E942A
:1019E000BE01B801012E000C880B990B97FF03C0B4
:1019F0000E94B30703C04AE00E947207BE010D2E89
:101A0000000C880B990B97FF03C00E94B30703C01B
:101A10004AE00E94720784E491E00E946007012B73
:101A200019F468E37FEF02C068EC70E0CD2B19F485
:101A300088E39FEF02C088EC90E00E94DA070E94E2
:101A40005C064FCF052E97FB1EF400940E94390DC3
:101A500057FD07D00E944C0D07FC03D04EF40C94A8
:101A6000390D50954095309521953F4F4F4F5F4F21
:101A7000089590958095709561957F4F8F4F9F4FFA
:101A800008950E946E0DA59F900DB49F900DA49F88
:101A9000800D911D11240895A1E21A2EAA1BBB1BD3
:101AA000FD010DC0AA1FBB1FEE1FFF1FA217B3072A
:101AB000E407F50720F0A21BB30BE40BF50B661F40
:101AC000771F881F991F1A9469F760957095809504
:101AD00090959B01AC01BD01CF010895A29FB0017B
:101AE000B39FC001A39F700D811D1124911DB29F52
:101AF000700D811D1124911D08955058BB27AA27F0
:101B00000E94950D0C943E0E0E94300E38F00E94FB
:101B1000370E20F039F49F3F19F426F40C942D0E63
:101B20000EF4E095E7FB0C94270EE92F0E944F0E70
:101B300058F3BA17620773078407950720F079F402
:101B4000A6F50C94710E0EF4E0950B2EBA2FA02D75
:101B50000B01B90190010C01CA01A0011124FF275A
:101B6000591B99F0593F50F4503E68F11A16F04055
:101B7000A22F232F342F4427585FF3CF4695379554
:101B80002795A795F0405395C9F77EF41F16BA0B19
:101B9000620B730B840BBAF09150A1F0FF0FBB1FC7
:101BA000661F771F881FC2F70EC0BA0F621F731F10
:101BB000841F48F4879577956795B795F7959E3F6D
:101BC00008F0B0CF9395880F08F09927EE0F9795FE
:101BD00087950895E89409C097FB3EF49095809509
:101BE000709561957F4F8F4F9F4F9923A9F0F92FE3
:101BF00096E9BB279395F695879577956795B79561
:101C0000F111F8CFFAF4BB0F11F460FF1BC06F5F46
:101C10007F4F8F4F9F4F16C0882311F096E911C058
:101C2000772321F09EE8872F762F05C0662371F079
:101C300096E8862F70E060E02AF09A95660F771F8D
:101C4000881FDAF7880F9695879597F9089597F981
:101C50009F6780E870E060E008959FEF80EC089552
:101C600000240A941616170618060906089500247B
:101C70000A9412161306140605060895092E0394F5
:101C8000000C11F4882352F0BB0F40F4BF2B11F469
:101C900060FF04C06F5F7F4F8F4F9F4F089557FDC8
:101CA0009058440F551F59F05F3F71F04795880FCA
:101CB00097FB991F61F09F3F79F087950895121661
:101CC00013061406551FF2CF4695F1DF08C016160D
:101CD00017061806991FF1CF8695710561050894BE
:101CE0000895E894BB2766277727CB0197F90895D5
:101CF0000E94EA0E08F48FEF08950E94900E0C9453
:101D00003E0E0E94300E38F00E94370E20F09523D0
:101D100011F00C94270E0C942D0E11240C94720EBD
:101D20000E944F0E70F3959FC1F3950F50E0551F21
:101D3000629FF001729FBB27F00DB11D639FAA2720
:101D4000F00DB11DAA1F649F6627B00DA11D661F6F
:101D5000829F2227B00DA11D621F739FB00DA11D90
:101D6000621F839FA00D611D221F749F3327A00D4A
:101D7000611D231F849F600D211D822F762F6A2FE6
:101D800011249F5750409AF0F1F088234AF0EE0F4B
:101D9000FF1FBB1F661F771F881F91505040A9F778
:101DA0009E3F510580F00C94270E0C94720E5F3FFD
:101DB000E4F3983ED4F3869577956795B795F795B4
:101DC000E7959F5FC1F7FE2B880F911D969587952C
:101DD00097F90895990F0008550FAA0BE0E8FEEF58
:101DE00016161706E807F907C0F012161306E407DF
:101DF000F50798F0621B730B840B950B39F40A26D8
:101E000061F0232B242B252B21F408950A2609F4B5
:101E1000A140A6958FEF811D811D0895991B79E042
:101E200004C0991F961708F0961B881F7A95C9F76A
:101E300080950895EE0FFF1F0590F491E02D099411
:0E1E400081E090E0F8940C94250FF894FFCF09
:101E4E00FF00000000F30560058B053A06BC059AFD
:101E5E0005AE05000000004F073B070607F706FE1C
:101E6E0006FB06F80648756D69646974792F54652A
:101E7E006D70657261747572652052656164696E0C
:081E8E0067733A000D0A000021
:00000001FF
