:100000000C9463000C948B000C948B000C948B006C
:100010000C948B000C948B000C948B000C94ED04CE
:100020000C948B000C948B000C948B000C946F053B
:100030000C948B000C948B000C948B000C948B0014
:100040000C94A3040C948B000C948B000C948B00E8
:100050000C948B000C948B000C948B000C948B00F4
:100060000C948B000C948B000200000000240027ED
:10007000002A0000000000250028002B00000000DE
:1000800000230026002900040404040404040402DC
:100090000202020202030303030303010204081025
:1000A00020408001020408102001020408102000F2
:1000B0000000080002010000030407000000000027
:1000C00000000000420711241FBECFEFD8E0DEBFC2
:1000D000CDBF11E0A0E0B1E0E0EDFFE002C005908F
:1000E0000D92A230B107D9F721E0A2E0B1E001C042
:1000F0001D92AF34B207E1F710E0C3E6D0E004C0D0
:100100002197FE010E94E007C236D107C9F70E947D
:1001100030060C94E6070C940000833081F028F43C
:10012000813099F08230A1F008958730A9F08830AD
:10013000B9F08430D1F4809180008F7D03C080912C
:1001400080008F7780938000089584B58F7702C0F8
:1001500084B58F7D84BD08958091B0008F7703C0F2
:100160008091B0008F7D8093B0000895CF93DF938E
:10017000282F30E0F901E155FF4F8491F901E55650
:10018000FF4FD491F901E957FF4FC491CC2391F06F
:1001900081110E948D00EC2FF0E0EE0FFF1FE3585D
:1001A000FF4FA591B491EC91ED2381E090E021F413
:1001B00080E002C080E090E0DF91CF9108951F932E
:1001C000CF93DF93282F30E0F901E155FF4F849161
:1001D000F901E556FF4FD491F901E957FF4FC4915A
:1001E000CC23C9F0162F81110E948D00EC2FF0E076
:1001F000EE0FFF1FED58FF4FA591B4918FB7F89404
:10020000111105C09C91ED2FE095E92302C0EC91FE
:10021000ED2BEC938FBFDF91CF911F910895CF937A
:10022000DF9390E0FC01E556FF4F2491FC01E95774
:10023000FF4F8491882361F190E0880F991FFC01A2
:10024000E759FF4FC591D491FC01ED58FF4FA5919F
:10025000B491611109C09FB7F894888120958223D9
:100260008883EC912E230BC0623061F49FB7F89421
:100270003881822F809583238883EC912E2B2C93B9
:100280009FBF06C08FB7F894E8812E2B28838FBFBD
:10029000DF91CF9108953FB7F89480914B019091F1
:1002A0004C01A0914D01B0914E0126B5A89B05C00F
:1002B0002F3F19F00196A11DB11D3FBFBA2FA92FE5
:1002C000982F8827820F911DA11DB11DBC01CD0162
:1002D00042E0660F771F881F991F4A95D1F708954E
:1002E0008F929F92AF92BF92CF92DF92EF92FF9246
:1002F0006B017C010E944B014B015C01C114D104D4
:10030000E104F104F1F00E944B01DC01CB018819FA
:100310009909AA09BB09883E9340A105B10570F36C
:1003200021E0C21AD108E108F10888EE880E83E0C6
:10033000981EA11CB11CC114D104E104F10419F7E9
:10034000DDCFFF90EF90DF90CF90BF90AF909F9068
:100350008F9008953F924F925F926F927F928F920B
:100360009F92AF92BF92CF92DF92EF92FF920F9344
:100370001F93CF93DF9300D000D0CDB7DEB790911D
:100380000001981721F09F3F09F036C204C0E8E64B
:10039000F0E0349081C080930001E8E6F0E0E49161
:1003A000EF3F09F429C2E13031F1E23009F44BC0EA
:1003B000E11171C014BC15BC94B5926094BD95B5A3
:1003C000916095BDA82FB0E0FD01E957FF4FE49182
:1003D000F0E0EE0FFF1FED58FF4F059114911093C1
:1003E000090100930801FD01E556FF4FE491E093F8
:1003F0000701312C53C0109280001092810090911F
:100400008100986090938100909181009160909319
:100410008100A82FB0E0FD01E957FF4FE491F0E023
:10042000EE0FFF1FED58FF4F059114911093060139
:1004300000930501FD01E556FF4FE491E0930401AF
:10044000332433942BC01092B0001092B1009091DD
:10045000B00092609093B0009091B1009160909341
:10046000B100A82FB0E0FD01E957FF4FE491F0E0A3
:10047000EE0FFF1FED58FF4F0591149110931301DC
:1004800000931201FD01E556FF4FE491E093140142
:1004900002E0302E03C03E2E37FCAEC129013A01E6
:1004A0008B0161E00E940F014801A12CB12C832D2A
:1004B0008D7F09F0BBC060E072E18AE790E0A501A2
:1004C00094010E94790729833A834B835C836901F5
:1004D0007A0121E0C21AD108E108F1088FEFC816AD
:1004E000D104E104F10409F008F44CC060E472E4C2
:1004F0008FE090E0A50194010E94790769017A01DB
:10050000E1E0CE1AD108E108F108F2E03F1220C084
:100510002FEFC216D104E104F10409F008F46AC116
:1005200060E970ED83E090E0A50194010E947907F5
:1005300069017A0181E0C81AD108E108F108EFEFFA
:10054000CE16D104E104F10409F0D0F583E067C0D0
:10055000FFEFCF16D104E104F104B1F0A8F068E494
:1005600078EE81E090E0A50194010E94790769018D
:100570007A0181E0C81AD108E108F108332009F4B2
:10058000DFC02FC181E001C082E03320A1F047C06D
:1005900089819A81AB81BC812AE0B595A795979511
:1005A00087952A95D1F76C017D0121E0C21AD10807
:1005B000E108F10885E095B5987F892B85BD6FC06E
:1005C00068E478EE81E090E0A50194010E9479074B
:1005D00069017A01F1E0CF1AD108E108F1082FEFA3
:1005E000C216D104E104F10409F008F4A7C064E2E2
:1005F00074EF80E090E0A50194010E947907690101
:100600007A01E1E0CE1AD108E108F108FFEFCF1638
:10061000D104E104F10411F008F0B4C085E0909138
:10062000B100987F892B8093B10039C060E072E1FE
:100630008AE790E0A50194010E94790769017A0197
:1006400081E0C81AD108E108F108C114D104E1E041
:10065000EE06F10488F068E478EE81E090E0A50110
:1006600094010E94790769017A01F1E0CF1AD1085B
:10067000E108F10893E001C091E021E032120FC0DF
:1006800080918100887F892B8093810041145104DF
:100690006104710449F42FEF3FEFA9012DC041140B
:1006A00051046104710471F0D801AA0FBB1FA301AA
:1006B00092010E94980728EE33E040E050E00E944B
:1006C000A30703C02FEF3FEFA90181E03816A1F087
:1006D000E2E03E1619F131108FC0C7BC20930E0125
:1006E00030930F01409310015093110180916E00DF
:1006F000826080936E0080C0D0928900C092880092
:1007000020930A0130930B0140930C0150930D018B
:1007100080916F00826080936F006EC0C092B300C2
:10072000209315013093160140931701509318013F
:10073000809170008260809370005EC084E06FCF13
:10074000FFEFCF16D104E104F104D1F0C8F062E16B
:100750007AE780E090E0A50194010E9479076901A1
:100760007A0181E0C81AD108E108F108EFEFCE164E
:10077000D104E104F10411F008F00ACF84E01BCFAA
:1007800083E019CF62E17AE780E090E0A50194016F
:100790000E94790769017A0181E0C81AD108E1084D
:1007A000F108EFEFCE16D104E104F104C1F0B8F086
:1007B00089819A81AB81BC814AE0B595A7959795CF
:1007C00087954A95D1F76C017D0121E0C21AD108C5
:1007D000E108F108332009F4EDCE87E020CF86E070
:1007E000D4CEFFEFCF16D104E104F10409F050F6A6
:1007F00084E0CBCE82E013CF0F900F900F900F903C
:10080000DF91CF911F910F91FF90EF90DF90CF90EC
:10081000BF90AF909F908F907F906F905F904F9020
:100820003F900895FC0190819C3080F5818128E8FB
:1008300030E0281B310987FD3395220F331F220F2B
:10084000331F621773077CF0828128E532E0281B92
:10085000310987FD3395220F331F220F331F621793
:1008600073070CF49B0122503109220F331F4FB73D
:10087000F894892F90E0FC01EE0FFF1F8E0F9F1F51
:10088000FC01E75EFE4F328321834FBF08951F9323
:10089000CF93DF93EC01162F88818C3008F04EC087
:1008A00061E0812F0E940F018881E82FF0E09F0115
:1008B000220F331FE20FF31FE75EFE4F1F7390817D
:1008C000907C192B108319821A826CE00E94D40745
:1008D0009CE0899FB001112440E050E09A01260F6E
:1008E000371FF901EE0FFF1F2E0F3F1FF901E75EC3
:1008F000FE4F908196FD16C04F5F5F4F4C30510503
:1009000069F781110FC01092800082E0809381000E
:100910001092850010928400B19A80916F008260DD
:1009200080936F00E881F0E0CF01880F991FE80FF6
:10093000F91FE75EFE4F8081806480838881DF91AC
:10094000CF911F9108951F920F920FB60F9211240D
:100950002F933F938F939F93AF93BF9380914701C2
:1009600090914801A0914901B0914A01309146010E
:1009700023E0230F2D3720F40196A11DB11D05C0E2
:1009800026E8230F0296A11DB11D209346018093F6
:10099000470190934801A0934901B0934A01809187
:1009A0004B0190914C01A0914D01B0914E010196E7
:1009B000A11DB11D80934B0190934C01A0934D015B
:1009C000B0934E01BF91AF919F918F913F912F9125
:1009D0000F900FBE0F901F9018951F920F920FB699
:1009E0000F9211242F933F934F935F936F937F93B5
:1009F0008F939F93AF93BF93EF93FF9380911501D4
:100A000090911601A0911701B0911801892B8A2BA2
:100A10008B2B59F180911401E0911201F091130197
:100A20009081892780838091150190911601A09172
:100A30001701B0911801181619061A061B060CF0BA
:100A40003DC08091150190911601A0911701B091C0
:100A500018010197A109B10980931501909316011E
:100A6000A0931701B093180129C080910001E8E616
:100A7000F0E0E4919FEF90930001E130B9F098F03D
:100A8000E230C9F4909170009D7F9093700091E0E6
:100A90009093B0009091B100987F94609093B100D2
:100AA0001092B30008C010926E0005C090916F00C4
:100AB0009D7F90936F0060E00E94DF00FF91EF91B7
:100AC000BF91AF919F918F917F916F915F914F9166
:100AD0003F912F910F900FBE0F901F9018951F926E
:100AE0000F920FB60F9211242F933F934F935F9362
:100AF0006F937F938F939F93AF93BF93EF93FF93E6
:100B00008091030187FF05C0109285001092840038
:100B10001BC020910301022E000C330B80910201B7
:100B200090E02817390784F480910301082E000C07
:100B3000990BFC01EE0FFF1F8E0F9F1FFC01E75E5C
:100B4000FE4F808186FD15C0809103018F5F8093E9
:100B5000030120910301022E000C330B809102014E
:100B600090E028173907C4F4809103018C3064F1B8
:100B700013C080910301082E000C990BFC01EE0FAD
:100B8000FF1F8E0F9F1FFC01E75EFE4F808160E01C
:100B90008F730E94DF00D8CF8091840090918500F0
:100BA000049680349C4918F480E49CE905C0809147
:100BB000840090918500049690938900809388002A
:100BC0008FEF809303013BC020918400309185001A
:100BD00080910301082E000C990BFC01EE0FFF1F02
:100BE0008E0F9F1FFC01E75EFE4F81819281820F75
:100BF000931F909389008093880080910301082EB1
:100C0000000C990BFC01EE0FFF1F8E0F9F1FFC01C4
:100C1000E75EFE4F808186FF12C080910301082E9F
:100C2000000C990BFC01EE0FFF1F8E0F9F1FFC01A4
:100C3000E75EFE4F808161E08F730E94DF00FF91CD
:100C4000EF91BF91AF919F918F917F916F915F9144
:100C50004F913F912F910F900FBE0F901F901895BD
:100C6000789484B5826084BD84B5816084BD85B587
:100C7000826085BD85B5816085BD80916E00816093
:100C800080936E0010928100809181008260809339
:100C9000810080918100816080938100809180003B
:100CA0008160809380008091B10084608093B10066
:100CB0008091B00081608093B00080917A00846060
:100CC00080937A0080917A00826080937A0080918C
:100CD0007A00816080937A0080917A0080688093A6
:100CE0007A001092C10060E08AE00E940F0161E08A
:100CF00089E00E940F0160E083E00E940F0161E043
:100D000082E00E940F0128EE33E040E050E068EB03
:100D10007BE084E00E94AA0168EE73E080E090E04E
:100D20000E9470016DE070E080E491E00E94470451
:100D30006CE070E08DE391E00E9447041092450161
:100D400081E0809344011092430180E0E82E80E02E
:100D5000F82E28E030E040E050E060E774E989E0F8
:100D60000E94AA0161E070E080E090E00E947001C2
:100D70008AE00E94B6008C0161E070E080E090E0C3
:100D80000E94700128E030E040E050E060E774E944
:100D900082E00E94AA0161E070E080E090E00E94A1
:100DA000700183E00E94B600EC0161E070E080E039
:100DB00090E00E9470010C171D07E1F08091450141
:100DC00090E008171907A1F08091440190E0C8173E
:100DD000D90771F0809143018F5F809343010093A5
:100DE0004501C0934401843029F41092430106C0A8
:100DF00010924301012B11F5CD2BB9F464E175E09C
:100E000080E491E00E94120464EA76E08DE391E0D0
:100E10000E9412046CE370E080E090E00E94700198
:100E20006CE370E080E090E024C064EA76E080E467
:100E300091E00E94120464EA76E00DC0CD2B19F413
:100E400064E175E002C064EA76E080E491E00E942B
:100E5000120464E175E08DE391E00E94120464E104
:100E600070E080E090E00E94700164E170E080E05A
:100E700090E00E947001E114F10409F46ACF0E942D
:100E8000000067CF809102018C30A0F491E0980FB0
:100E9000909302018093400190E0FC01EE0FFF1F50
:100EA0008E0F9F1FFC01E75EFE4F88EB9BE0928355
:100EB000818303C08FEF80934001809102018C30C9
:100EC000A0F491E0980F9093020180933D0190E08F
:100ED000FC01EE0FFF1F8E0F9F1FFC01E75EFE4F10
:100EE00088EB9BE09283818308958FEF80933D018F
:100EF0000895052E97FB1EF400940E94900757FD5D
:100F000007D00E94A30707FC03D04EF40C9490076F
:100F100050954095309521953F4F4F4F5F4F089525
:100F200090958095709561957F4F8F4F9F4F089555
:100F30000E94C507A59F900DB49F900DA49F800DA2
:100F4000911D11240895A1E21A2EAA1BBB1BFD01BD
:100F50000DC0AA1FBB1FEE1FFF1FA217B307E40798
:100F6000F50720F0A21BB30BE40BF50B661F771FF0
:100F7000881F991F1A9469F76095709580959095D0
:100F80009B01AC01BD01CF010895A29FB001B39FA9
:100F9000C001A39F700D811D1124911DB29F700D82
:100FA000811D1124911D0895991B79E004C0991F9A
:100FB000961708F0961B881F7A95C9F780950895B3
:100FC000EE0FFF1F0590F491E02D0994F894FFCFE8
:020FD000FF0020
:00000001FF
