:100000000C9463000C948B000C948B000C948B006C
:100010000C948B000C948B000C948B000C941506A4
:100020000C948B000C948B000C948B000C94E809BE
:100030000C948B000C948B000C948B000C948B0014
:100040000C9402040C948B000C9425090C94FF086A
:100050000C948B000C948B000C948B000C948B00F4
:100060000C94A90A0C948B000000000024002700C7
:100070002A0000000000250028002B0000000000DE
:1000800023002600290004040404040404040202DA
:100090000202020203030303030301020408102007
:1000A0004080010204081020010204081020000012
:1000B0000008000201000003040700000000000027
:1000C00000000200D70B11241FBECFEFD8E0DEBF27
:1000D000CDBF11E0A0E0B1E0E4E9F1E202C005909B
:1000E0000D92A837B107D9F723E0A8E7B1E001C026
:1000F0001D92AF31B207E1F710E0C3E6D0E004C0D3
:100100002197FE010E94BD10C236D107C9F70E9497
:10011000620C0C94C8100C94000020919A019091EC
:10012000AF02213208F04AC08091C1018111FCCF99
:1001300032E03093C10131E03093C0013FEF3093A2
:10014000BF011092BE012093BD01AAE7B1E04BE9C7
:1001500051E0FA013E2F341B321718F43D913193D0
:10016000F9CF1092BC012091BC01990F922B909372
:10017000BC019091BB01913061F41092BB01909150
:10018000BC019093BB009091BC0093FDF8CF95EC1F
:1001900001C095EE9093BC009091C1019230E1F3C3
:1001A0009091BF019F3F79F08091BF01803241F073
:1001B0008091BF01803331F084E005C081E003C04D
:1001C00082E001C083E01092790110929A011092AE
:1001D00078010895833081F028F4813099F08230DD
:1001E000A1F008958730A9F08830B9F08430D1F4B7
:1001F000809180008F7D03C0809180008F778093F5
:100200008000089584B58F7702C084B58F7D84BD4A
:1002100008958091B0008F7703C08091B0008F7DEA
:100220008093B0000895CF93DF93282F30E0F90139
:10023000E255FF4F8491F901E656FF4FD491F90141
:10024000EA57FF4FC491CC2391F081110E94EA003C
:10025000EC2FF0E0EE0FFF1FE458FF4FA591B49193
:10026000EC91ED2381E090E021F480E002C080E099
:1002700090E0DF91CF9108953FB7F8948091AB0261
:100280009091AC02A091AD02B091AE0226B5A89BB0
:1002900005C02F3F19F00196A11DB11D3FBFBA2F18
:1002A000A92F982F8827820F911DA11DB11DBC0178
:1002B000CD0142E0660F771F881F991F4A95D1F73D
:1002C00008958F929F92AF92BF92CF92DF92EF925A
:1002D000FF926B017C010E943C014B015C01C11447
:1002E000D104E104F104F1F00E943C01DC01CB01F6
:1002F00088199909AA09BB09883E9340A105B1054F
:1003000070F321E0C21AD108E108F10888EE880EE6
:1003100083E0981EA11CB11CC114D104E104F104B6
:1003200019F7DDCFFF90EF90DF90CF90BF90AF90A7
:100330009F908F900895682F80EB92E00C94E405D5
:100340009091C1019111FCCF813208F080E291E0DF
:100350009093C1019093C0012FEF2093BF011092A1
:10036000BE01280F2093BD019093BC019091BC0168
:1003700090689093BC019091BB01913061F4109210
:10038000BB019091BC019093BB009091BC0093FD88
:10039000F8CF95EC01C095EE9093BC009091C1010F
:1003A0009130E1F39091BE01981710F48091BE0155
:1003B000ABE9B1E024EC31E0F9019E2F921B9817D4
:1003C00018F49D919193F9CF1092C3018093C201CB
:1003D0000895CF93DF9381E08093780180E4809348
:1003E000AF021092790110929A0185EE90E00E947E
:1003F0009B010E948D0062E370E080E090E00E942B
:10040000610183E090E00E94A0019091C20180917F
:10041000C3019817F1F380EB92E00E946205D82F98
:1004200080E0C82F80EB92E00E946205C82BD92B98
:1004300080EB92E00E946205BE0180E090E00E94A5
:10044000880F20E030E04AEF52E40E943F1020E0A5
:1004500030E040E857E30E943F1020E030E040ECFD
:1004600050E40E94750EDF91CF910895009769F0D6
:10047000FC0101900020E9F73197AF01481B590BAF
:10048000BC0184EE91E00C944C0480E090E008956F
:10049000CF93DF930E943602EC0185E291E00E9447
:1004A00036028C0F9D1FDF91CF9108958F929F92FE
:1004B000AF92BF920F931F93CF93DF93CDB7DEB769
:1004C000A1970FB6F894DEBF0FBECDBF19A2423080
:1004D00008F44AE08E010F5D1F4F842E912CA12C51
:1004E000B12CA50194010E94440EE62FB901CA0166
:1004F00001501109EA3014F4E05D01C0E95CD80153
:10050000EC93232B242B252B61F7C8010E94360284
:10051000A1960FB6F894DEBF0FBECDBFDF91CF918D
:100520001F910F91BF90AF909F908F9008954F9221
:100530005F926F927F928F929F92AF92BF92CF9273
:10054000DF92EF92FF926B017C01B42E9B01AC0114
:100550000E94AC10882319F088E291E027C02601A0
:100560003701E89477F82FEF3FEF4FE75FE7C301DC
:10057000B2010E94AC1081110DC02FEF3FEF4FE789
:100580005FE7C301B2010E94E20E18161CF48CE270
:1005900091E00CC02FEF3FEF4FE75FE4C701B601DA
:1005A0000E943A10181684F480E391E0FF90EF90D7
:1005B000DF90CF90BF90AF909F908F907F906F9083
:1005C0005F904F900C9436022FEF3FEF4FE75FECB8
:1005D000C701B6010E94E20E87FDE6CF20E030E0C1
:1005E000A901C701B6010E94E20E87FF11C0E09188
:1005F000E401F091E5010190F081E02D6DE284EEDF
:1006000091E009954C01F7FAF094F7F8F09402C0E4
:10061000812C912CA12C60E070E080E09FE3AB1472
:1006200041F020E030E040E251E40E94E70EA39464
:10063000F6CF9B01AC01C701B6010E94760E2B01DB
:100640003C010E94590F6B017C010E94880F9B01A5
:10065000AC01C301B2010E94750E2B013C014AE0BE
:10066000C701B6010E9456027C01E80CF91CBB20B0
:1006700069F0E091E401F091E5010190F081E02D55
:100680006EE284EE91E00995E80EF91EDB2CDD2088
:1006900021F120E030E040E251E4C301B2010E94C8
:1006A0003F102B013C010E94590F4B01A12CB12C92
:1006B0004AE0C501B4010E945602E80EF91EC501C8
:1006C000B4010E94880F9B01AC01C301B2010E94DA
:1006D000750E2B013C01DA94DACFC701FF90EF9041
:1006E000DF90CF90BF90AF909F908F907F906F9052
:1006F0005F904F900895CF93DF93EB01BC0164525C
:100700007A4F8FEB92E00E9457098CED95E0BC0187
:100710006C1B7D0B8CEB92E00E94570964E170E04A
:1007200080E090E0DF91CF910C9461011F93CF9313
:10073000DF93282F30E0F901E255FF4F8491F90152
:10074000E656FF4FD491F901EA57FF4FC491CC23ED
:10075000C9F0162F81110E94EA00EC2FF0E0EE0F95
:10076000FF1FEE58FF4FA591B4918FB7F894111168
:1007700005C09C91ED2FE095E92302C0EC91ED2B93
:10078000EC938FBFDF91CF911F910895CF93DF93AB
:1007900090E0FC01E656FF4F2491FC01EA57FF4F21
:1007A0008491882361F190E0880F991FFC01E8593A
:1007B000FF4FC591D491FC01EE58FF4FA591B49124
:1007C000611109C09FB7F89488812095822388839E
:1007D000EC912E230BC0623061F49FB7F8943881FE
:1007E000822F809583238883EC912E2B2C939FBF9F
:1007F00006C08FB7F894E8812E2B28838FBFDF9136
:10080000CF9108951F920F920FB60F9211242F933C
:100810003F938F939F93AF93BF938091A702909143
:10082000A802A091A902B091AA023091A60223E0E9
:10083000230F2D3720F40196A11DB11D05C026E818
:10084000230F0296A11DB11D2093A6028093A7023B
:100850009093A802A093A902B093AA028091AB0240
:100860009091AC02A091AD02B091AE020196A11D93
:10087000B11D8093AB029093AC02A093AD02B093F4
:10088000AE02BF91AF919F918F913F912F910F90A9
:100890000FBE0F901F901895CF92DF92EF92FF92AC
:1008A0000F931F93CF93DF936C017A018B01C0E00C
:1008B000D0E0CE15DF0589F0D8016D918D01D6010C
:1008C000ED91FC910190F081E02DC6010995892BF5
:1008D00011F47E0102C02196ECCFC701DF91CF91C8
:1008E0001F910F91FF90EF90DF90CF900895FC0142
:1008F000538D448D252F30E0842F90E0821B930B85
:10090000541710F0CF96089501970895FC01918D2A
:10091000828D981761F0828DDF01A80FB11D5D9661
:100920008C91928D9F5F9F73928F90E008958FEFCF
:100930009FEF0895FC01918D828D981731F0828D83
:10094000E80FF11D858D90E008958FEF9FEF0895DA
:10095000FC01918D228D892F90E0805C9F4F821B3E
:1009600091098F739927089584EE91E00E94A8045D
:1009700021E0892B09F420E0822F0895FC01848D69
:10098000DF01A80FB11DA35ABF4F2C91848D90E0B9
:1009900001968F739927848FA689B7892C93A08994
:1009A000B1898C9180648C93938D848D981306C04B
:1009B0000288F389E02D80818F7D80830895EF92F6
:1009C000FF920F931F93CF93DF93EC0181E0888F09
:1009D0009B8D8C8D981305C0E889F989808185FDF0
:1009E00024C0F62E0B8D10E00F5F1F4F0F731127E1
:1009F000E02E8C8DE8120CC00FB607FCFACFE88908
:100A0000F989808185FFF5CFCE010E94BE04F1CF28
:100A10008B8DFE01E80FF11DE35AFF4FF0820B8F23
:100A2000EA89FB898081806207C0EE89FF89608343
:100A3000E889F98980818064808381E090E0DF919A
:100A4000CF911F910F91FF90EF900895CF93DF9377
:100A5000EC01888D8823C9F0EA89FB89808185FDB6
:100A600005C0A889B9898C9186FD0FC00FB607FC17
:100A7000F5CF808185FFF2CFA889B9898C9185FF58
:100A8000EDCFCE010E94BE04E7CFDF91CF91089554
:100A900080E090E0892B29F00E94B40481110C942D
:100AA000000008950895E091C3018091C201E81704
:100AB00030F4F0E0EC53FE4F808190E008958FEF2A
:100AC0009FEF08959091C3018091C201981750F44F
:100AD000E92FF0E0EC53FE4F208130E09F5F9093D0
:100AE000C30102C02FEF3FEFC90108958091C201F9
:100AF00090E02091C301821B91090895089580E040
:100B000090E0089585ED8093BC008091BC0084FD49
:100B1000FCCF1092C10108954091E402262F30E0ED
:100B2000240F311D21323105DCF42091C101243024
:100B3000C9F4FC0180E090E0861758F43091E4029B
:100B40002191DC01AE53BD4FA30FB11D2C93019633
:100B5000F3CF8091E402680F6093E40280E008958F
:100B600081E0089582E00895CF92DF92EF92FF92A4
:100B70000F931F93CF93DF937C01262F972F8A012A
:100B800080917801882391F0C62FD72F6E01C40E73
:100B9000D51ECC15DD0571F06991D701ED91FC9161
:100BA0000190F081E02DC7010995F3CF642F822FCA
:100BB0000E948C05C801DF91CF911F910F91FF908A
:100BC000EF90DF90CF900895CF93DF931F92CDB732
:100BD000DEB76983209178012223D1F020919A0118
:100BE000203240F021E030E0FC013383228380E0BA
:100BF00090E015C080917901E82FF0E0E658FE4FB3
:100C0000998190838F5F8093790180939A0105C0C9
:100C100061E0CE0101960E948C0581E090E00F908A
:100C2000DF91CF9108950E94C3101F920F920FB6CB
:100C30000F9211242F933F934F935F936F937F9362
:100C40008F939F93AF93BF93EF93FF9380911B0379
:100C500090911C03A0911D03B0911E03892B8A2B38
:100C60008B2B59F180911A03E0911803F09119032D
:100C700090818927808380911B0390911C03A09110
:100C80001D03B0911E03181619061A061B060CF058
:100C90003DC080911B0390911C03A0911D03B09156
:100CA0001E030197A109B10980931B0390931C03B4
:100CB000A0931D03B0931E0329C080910001E2ECB4
:100CC000F0E0E4919FEF90930001E130B9F098F0EB
:100CD000E230C9F4909170009D7F9093700091E094
:100CE0009093B0009091B100987F94609093B10080
:100CF0001092B30008C010926E0005C090916F0072
:100D00009D7F90936F0060E00E949603FF91EF91AA
:100D1000BF91AF919F918F917F916F915F914F9113
:100D20003F912F910F900FBE0F901F9018953F92FB
:100D30004F925F926F927F928F929F92AF92BF92EB
:100D4000CF92DF92EF92FF920F931F93CF93DF9397
:100D500000D000D0CDB7DEB790910001981721F0F8
:100D60009F3F09F036C204C0E2ECF0E0349081C04D
:100D700080930001E2ECF0E0E491EF3F09F429C236
:100D8000E13031F1E23009F44BC0E11171C014BC23
:100D900015BC94B5926094BD95B5916095BDA82F92
:100DA000B0E0FD01EA57FF4FE491F0E0EE0FFF1FC6
:100DB000EE58FF4F0591149110930F0300930E030B
:100DC000FD01E656FF4FE491E0930D03312C53C033
:100DD0001092800010928100909181009860909311
:100DE000810090918100916090938100A82FB0E0E4
:100DF000FD01EA57FF4FE491F0E0EE0FFF1FEE58C0
:100E0000FF4F0591149110930C0300930B03FD0108
:100E1000E656FF4FE491E0930A03332433942BC04A
:100E20001092B0001092B1009091B0009260909337
:100E3000B0009091B10091609093B100A82FB0E004
:100E4000FD01EA57FF4FE491F0E0EE0FFF1FEE586F
:100E5000FF4F059114911093190300931803FD019E
:100E6000E656FF4FE491E0931A0302E0302E03C0F0
:100E70003E2E37FCAEC129013A018B0161E00E9490
:100E8000C6034801A12CB12C832D8D7F09F0BBC076
:100E900060E072E18AE790E0A50194010E941A0ED9
:100EA00029833A834B835C8369017A0121E0C21A6A
:100EB000D108E108F1088FEFC816D104E104F1046C
:100EC00009F008F44CC060E472E48FE090E0A50102
:100ED00094010E941A0E69017A01E1E0CE1AD1084C
:100EE000E108F108F2E03F1220C02FEFC216D10452
:100EF000E104F10409F008F46AC160E970ED83E0EF
:100F000090E0A50194010E941A0E69017A0181E026
:100F1000C81AD108E108F108EFEFCE16D104E104B8
:100F2000F10409F0D0F583E067C0FFEFCF16D104DC
:100F3000E104F104B1F0A8F068E478EE81E090E01B
:100F4000A50194010E941A0E69017A0181E0C81A74
:100F5000D108E108F108332009F4DFC02FC181E096
:100F600001C082E03320A1F047C089819A81AB8122
:100F7000BC812AE0B595A795979587952A95D1F7D5
:100F80006C017D0121E0C21AD108E108F10885E079
:100F900095B5987F892B85BD6FC068E478EE81E0B8
:100FA00090E0A50194010E941A0E69017A01F1E016
:100FB000CF1AD108E108F1082FEFC216D104E104DD
:100FC000F10409F008F4A7C064E274EF80E090E057
:100FD000A50194010E941A0E69017A01E1E0CE1A7E
:100FE000D108E108F108FFEFCF16D104E104F104C4
:100FF00011F008F0B4C085E09091B100987F892B82
:101000008093B10039C060E072E18AE790E0A50109
:1010100094010E941A0E69017A0181E0C81AD10870
:10102000E108F108C114D104E1E0EE06F10488F012
:1010300068E478EE81E090E0A50194010E941A0E28
:1010400069017A01F1E0CF1AD108E108F10893E0D3
:1010500001C091E021E032120FC080918100887FB1
:10106000892B80938100411451046104710449F477
:101070002FEF3FEFA9012DC0411451046104710409
:1010800071F0D801AA0FBB1FA30192010E94390E73
:1010900028EE33E040E050E00E94440E03C02FEF02
:1010A0003FEFA90181E03816A1F0E2E03E1619F108
:1010B00031108FC0C7BC20931403309315034093A5
:1010C00016035093170380916E00826080936E0028
:1010D00080C0D0928900C092880020931003309382
:1010E0001103409312035093130380916F008260A9
:1010F00080936F006EC0C092B30020931B033093A7
:101100001C0340931D0350931E0380917000826066
:10111000809370005EC084E06FCFFFEFCF16D104E4
:10112000E104F104D1F0C8F062E17AE780E090E0F8
:10113000A50194010E941A0E69017A0181E0C81A82
:10114000D108E108F108EFEFCE16D104E104F10473
:1011500011F008F00ACF84E01BCF83E019CF62E1E1
:101160007AE780E090E0A50194010E941A0E6901DF
:101170007A0181E0C81AD108E108F108EFEFCE1634
:10118000D104E104F104C1F0B8F089819A81AB8106
:10119000BC814AE0B595A795979587954A95D1F773
:1011A0006C017D0121E0C21AD108E108F108332069
:1011B00009F4EDCE87E020CF86E0D4CEFFEFCF1646
:1011C000D104E104F10409F050F684E0CBCE82E0D2
:1011D00013CF0F900F900F900F90DF91CF911F9131
:1011E0000F91FF90EF90DF90CF90BF90AF909F90C6
:1011F0008F907F906F905F904F903F9008951F92D7
:101200000F920FB60F9211242F933F934F935F933A
:101210006F937F938F939F93AF93BF93EF93FF93BE
:1012200084EE91E00E94BE04FF91EF91BF91AF91D7
:101230009F918F917F916F915F914F913F912F91EE
:101240000F900FBE0F901F9018951F920F920FB620
:101250000F9211242F938F939F93EF93FF93E0911D
:10126000F401F091F5018081E091FA01F091FB0128
:1012700082FD12C090818091FD018F5F8F7320915C
:10128000FE01821751F0E091FD01F0E0EC51FE4FBC
:10129000958F8093FD0101C08081FF91EF919F9117
:1012A0008F912F910F900FBE0F901F901895FC01FA
:1012B00090819C3080F5818128E830E0281B31093D
:1012C00087FD3395220F331F220F331F62177307D9
:1012D0007CF0828128E532E0281B310987FD3395B7
:1012E000220F331F220F331F621773070CF49B0169
:1012F00022503109220F331F4FB7F894892F90E005
:10130000FC01EE0FFF1F8E0F9F1FFC01EF57FD4FDB
:10131000328321834FBF08951F93CF93DF93EC0156
:10132000162F88818C3008F04EC061E0812F0E941A
:10133000C6038881E82FF0E09F01220F331FE20FE0
:10134000F31FEF57FD4F1F739081907C192B108373
:1013500019821A826CE00E94B1109CE0899FB00152
:10136000112440E050E09A01260F371FF901EE0FDB
:10137000FF1F2E0F3F1FF901EF57FD4F908196FD84
:1013800016C04F5F5F4F4C30510569F781110FC098
:101390001092800082E0809381001092850010926C
:1013A0008400B19A80916F00826080936F00E88121
:1013B000F0E0CF01880F991FE80FF91FEF57FD4F9D
:1013C0008081806480838881DF91CF911F9108950F
:1013D0001F920F920FB60F9211242F933F934F93AA
:1013E0005F936F937F938F939F93AF93BF93EF938D
:1013F000FF938091090387FF05C01092850010922A
:1014000084001BC020910903022E000C330B809135
:10141000A50290E02817390784F480910903082E6B
:10142000000C990BFC01EE0FFF1F8E0F9F1FFC019C
:10143000EF57FD4F808186FD15C0809109038F5FB6
:101440008093090320910903022E000C330B809135
:10145000A50290E028173907C4F4809109038C3065
:1014600064F113C080910903082E000C990BFC0154
:10147000EE0FFF1F8E0F9F1FFC01EF57FD4F808166
:1014800060E08F730E949603D8CF80918400909182
:101490008500049680349C4918F480E49CE905C0DA
:1014A00080918400909185000496909389008093A8
:1014B00088008FEF809309033BC020918400309116
:1014C000850080910903082E000C990BFC01EE0F9A
:1014D000FF1F8E0F9F1FFC01EF57FD4F81819281EF
:1014E000820F931F90938900809388008091090355
:1014F000082E000C990BFC01EE0FFF1F8E0F9F1F93
:10150000FC01EF57FD4F808186FF12C080910903D7
:10151000082E000C990BFC01EE0FFF1F8E0F9F1F72
:10152000FC01EF57FD4F808161E08F730E949603AD
:10153000FF91EF91BF91AF919F918F917F916F91AB
:101540005F914F913F912F910F900FBE0F901F9081
:1015500018951F920F920FB60F9211242F933F935D
:101560004F935F936F937F938F939F93AF93BF93AB
:10157000EF93FF938091B900887F803609F49CC077
:1015800068F5883209F45BC090F4803109F454C0E6
:1015900038F4882309F4F6C0883009F44DC0F6C049
:1015A000883109F44CC0803209F45DC0EFC080344A
:1015B00009F468C048F4803309F455C0883309F051
:1015C000E5C08093BF01D8C0803509F44FC088358D
:1015D00009F45DC0883409F0D9C0D6C0883909F44F
:1015E000C7C0A8F4883709F467C038F4883609F40E
:1015F00063C0803709F460C0C9C0883809F4B8C036
:10160000803909F45FC0803809F0C0C05BC0803BFE
:1016100009F486C038F4803A09F466C0883A09F4BF
:101620007FC0B4C0803C09F4A7C0883C09F4A4C0C2
:10163000883B09F48AC0AAC08091BC0110C0909177
:10164000BE018091BD01981770F5E091BE0181E067
:101650008E0F8093BE01F0E0E556FE4F80818093AF
:10166000BB0085EC86C08093BF018EC0E091BE01B7
:1016700081E08E0F8093BE018091BB00F0E0E556C3
:10168000FE4F80839091BE018091BD016EC0E091BC
:10169000BE0181E08E0F8093BE018091BB00F0E01F
:1016A000E556FE4F80838091C00181116DC081E0BD
:1016B0008093BB0184EA61C083E08093C1011092F2
:1016C0000803CFCF80910803803208F051C0E09129
:1016D000080381E08E0F809308038091BB00F0E047
:1016E000E851FD4F8083BDCF85EC8093BC00109204
:1016F000C10180910803803230F4E0910803F0E0EA
:10170000E851FD4F10826091080370E0E091E6021D
:10171000F091E70288EE92E009951092080336C036
:1017200084E08093C1011092E5021092E402E091FE
:10173000E202F091E30209958091E402811105C073
:1017400081E08093E4021092C202E091E50281E020
:101750008E0F8093E502F0E0EE53FD4F8081809381
:10176000BB009091E5028091E402981708F479CFCC
:1017700085E88093BC000AC085EC8093BC00109281
:10178000C10104C01092BF010E948205FF91EF9138
:10179000BF91AF919F918F917F916F915F914F9189
:1017A0003F912F910F900FBE0F901F9018951092A0
:1017B000E7011092E60188EE93E0A0E0B0E08093AC
:1017C000E8019093E901A093EA01B093EB0125E0D1
:1017D00031E03093E5012093E40125EC30E03093D3
:1017E000F1012093F00124EC30E03093F3012093D9
:1017F000F20120EC30E03093F5012093F40121EC6C
:1018000030E03093F7012093F60122EC30E0309382
:10181000F9012093F80126EC30E03093FB0120938E
:10182000FA011092FD011092FE011092FF01109238
:1018300000021092B3021092B2028093B40290930D
:10184000B502A093B602B093B70287E191E09093FE
:10185000B1028093B0028091A5028C30A0F491E097
:10186000980F9093A5028093BF0290E0FC01EE0FC9
:10187000FF1F8E0F9F1FFC01EF57FD4F88EB9BE072
:101880009283818303C08FEF8093BF028091A50272
:101890008C30A0F491E0980F9093A5028093BC0245
:1018A00090E0FC01EE0FFF1F8E0F9F1FFC01EF5712
:1018B000FD4F88EB9BE09283818308958FEF8093A7
:1018C000BC020895789484B5826084BD84B581603B
:1018D00084BD85B5826085BD85B5816085BD8091FB
:1018E0006E00816080936E00109281008091810073
:1018F000826080938100809181008160809381006B
:10190000809180008160809380008091B10084602C
:101910008093B1008091B00081608093B00080918D
:101920007A00846080937A0080917A00826080934C
:101930007A0080917A00816080937A0080917A00A9
:10194000806880937A001092C100E091F401F091D8
:10195000F50182E08083E091F001F091F1011082C5
:10196000E091F201F091F3018FEC80831092FC0181
:10197000E091F801F091F90186E08083E091F601B1
:10198000F091F701808180618083E091F601F09110
:10199000F701808188608083E091F601F091F70182
:1019A000808180688083E091F601F091F701808169
:1019B0008F7D808384E391E00E9448021092C301EE
:1019C0001092C2011092790110929A011092C101F5
:1019D000C1E0C093C0011092BB0161E082E10E94AE
:1019E000960361E083E10E9496038091B9008E7FA7
:1019F0008093B9008091B9008D7F8093B90088E40D
:101A00008093B80085E48093BC00C093780180E4A3
:101A10008093AF021092790110929A018EEF90E0BC
:101A20000E949B010E948D006FE070E080E090E0DA
:101A30000E946101C09378011092790110929A017D
:101A400087EE90E00E949B010E948D0081E090E073
:101A50000E94A00180EB92E00E94620560E08AE0B3
:101A60000E94C60361E089E00E94C60360E086E050
:101A70000E94C60361E083E00E94C60361E082E049
:101A80000E94C60328EE33E040E050E068EB7BE0C4
:101A900084E00E94970668EE73E080E090E00E9488
:101AA00061016DE070E08FEB92E00E948C096CE0C8
:101AB00070E08CEB92E00E948C09FF24F39480E4A8
:101AC000E82E0E94E9014B015C01F0927801E0925E
:101AD000AF021092790110929A0183EE90E00E9479
:101AE0009B010E948D0062E370E080E090E00E9424
:101AF000610183E090E00E94A0019091C201809179
:101B0000C3019817F1F380EB92E00E946205182F51
:101B100000E080EB92E00E946205E801C82BD92B1F
:101B200080EB92E00E946205BE0180E090E00E949E
:101B3000880F22E538EB4FE253E40E943F102B015F
:101B40003C0183E591E00E94360242E0C501B40108
:101B50000E9497028EE591E00E94480280E691E0A3
:101B60000E94360220E030E040E857E3C301B201B2
:101B70000E943F1026E636E64BE352E40E94750EC3
:101B800042E00E9497028EE691E00E9448020E9485
:101B9000E90120E030E048EC51E40E943A101816C8
:101BA00024F461E082E00E94960328E030E040E007
:101BB00050E060E774E989E00E94970661E070E018
:101BC00080E090E00E9461018AE00E9413016C01B4
:101BD00061E070E080E090E00E94610128E030E088
:101BE00040E050E060E774E983E00E94970661E01E
:101BF00070E080E090E00E94610186E00E941301A5
:101C0000EC0161E070E080E090E00E946101CD288D
:101C100019F468E37FEF02C068EC70E0CD2B19F493
:101C200088E39FEF02C088EC90E00E947B030E9453
:101C3000480547CF052E97FB1EF400940E94310EF5
:101C400057FD07D00E94440E07FC03D04EF40C94BD
:101C5000310E50954095309521953F4F4F4F5F4F36
:101C6000089590958095709561957F4F8F4F9F4F08
:101C700008950E94660EA59F900DB49F900DA49F9D
:101C8000800D911D11240895A1E21A2EAA1BBB1BE1
:101C9000FD010DC0AA1FBB1FEE1FFF1FA217B30738
:101CA000E407F50720F0A21BB30BE40BF50B661F4E
:101CB000771F881F991F1A9469F760957095809512
:101CC00090959B01AC01BD01CF010895A29FB00189
:101CD000B39FC001A39F700D811D1124911DB29F60
:101CE000700D811D1124911D08955058BB27AA27FE
:101CF0000E948D0E0C9400100E94F20F38F00E948A
:101D0000F90F20F039F49F3F19F426F40C94EF0FEB
:101D10000EF4E095E7FB0C94E90FE92F0E941110F7
:101D200058F3BA17620773078407950720F079F410
:101D3000A6F50C9433100EF4E0950B2EBA2FA02DBF
:101D40000B01B90190010C01CA01A0011124FF2768
:101D5000591B99F0593F50F4503E68F11A16F04063
:101D6000A22F232F342F4427585FF3CF4695379562
:101D70002795A795F0405395C9F77EF41F16BA0B27
:101D8000620B730B840BBAF09150A1F0FF0FBB1FD5
:101D9000661F771F881FC2F70EC0BA0F621F731F1E
:101DA000841F48F4879577956795B795F7959E3F7B
:101DB00008F0B0CF9395880F08F09927EE0F97950C
:101DC000879508950E94C50F08F481E008950E9448
:101DD000FB0E0C9400100E94F90F58F00E94F20FB5
:101DE00040F029F45F3F29F00C94E90F51110C9455
:101DF00034100C94EF0F0E94111068F39923B1F383
:101E0000552391F3951B550BBB27AA276217730720
:101E1000840738F09F5F5F4F220F331F441FAA1FB4
:101E2000A9F335D00E2E3AF0E0E832D09150504070
:101E3000E695001CCAF72BD0FE2F29D0660F771F1E
:101E4000881FBB1F261737074807AB07B0E809F004
:101E5000BB0B802DBF01FF2793585F4F3AF09E3F89
:101E6000510578F00C94E90F0C9434105F3FE4F3C3
:101E7000983ED4F3869577956795B795F7959F5FCC
:101E8000C9F7880F911D9695879597F90895E1E018
:101E9000660F771F881FBB1F621773078407BA0777
:101EA00020F0621B730B840BBA0BEE1F88F7E095D2
:101EB00008950E94191088F09F5798F0B92F99271C
:101EC000B751B0F0E1F0660F771F881F991F1AF025
:101ED000BA95C9F714C0B13091F00E943310B1E047
:101EE00008950C943310672F782F8827B85F39F046
:101EF000B93FCCF3869577956795B395D9F73EF4BE
:101F000090958095709561957F4F8F4F9F4F089565
:101F1000E89409C097FB3EF4909580957095619583
:101F20007F4F8F4F9F4F9923A9F0F92F96E9BB2739
:101F30009395F695879577956795B795F111F8CFB5
:101F4000FAF4BB0F11F460FF1BC06F5F7F4F8F4F20
:101F50009F4F16C0882311F096E911C0772321F016
:101F60009EE8872F762F05C0662371F096E8862FAE
:101F700070E060E02AF09A95660F771F881FDAF705
:101F8000880F9695879597F90895990F0008550F32
:101F9000AA0BE0E8FEEF16161706E807F907C0F0EF
:101FA00012161306E407F50798F0621B730B840BF7
:101FB000950B39F40A2661F0232B242B252B21F4D1
:101FC00008950A2609F4A140A6958FEF811D811D71
:101FD000089597F99F6780E870E060E008959FEFAB
:101FE00080EC089500240A941616170618060906B0
:101FF000089500240A94121613061406050608957F
:10200000092E0394000C11F4882352F0BB0F40F406
:10201000BF2B11F460FF04C06F5F7F4F8F4F9F4F46
:10202000089557FD9058440F551F59F05F3F71F0C8
:102030004795880F97FB991F61F09F3F79F087952F
:102040000895121613061406551FF2CF4695F1DFB8
:1020500008C0161617061806991FF1CF8695710548
:10206000610508940895E894BB2766277727CB017C
:1020700097F908950E94C50F08F48FEF08950E9404
:1020800052100C9400100E94F20F38F00E94F90FC9
:1020900020F0952311F00C94E90F0C94EF0F11240C
:1020A0000C9434100E94111070F3959FC1F3950F9A
:1020B00050E0551F629FF001729FBB27F00DB11DCC
:1020C000639FAA27F00DB11DAA1F649F6627B00D5C
:1020D000A11D661F829F2227B00DA11D621F739F45
:1020E000B00DA11D621F839FA00D611D221F749F53
:1020F0003327A00D611D231F849F600D211D822F9A
:10210000762F6A2F11249F5750409AF0F1F08823C0
:102110004AF0EE0FFF1FBB1F661F771F881F9150ED
:102120005040A9F79E3F510580F00C94E90F0C94A4
:1021300034105F3FE4F3983ED4F386957795679526
:10214000B795F795E7959F5FC1F7FE2B880F911D17
:102150009695879597F908950E94C50F880B990B5E
:102160000895991B79E004C0991F961708F0961BF3
:10217000881F7A95C9F780950895EE0FFF1F059087
:10218000F491E02D099481E090E0F8940C94C8104B
:04219000F894FFCFF1
:10219400FF00000000DF044C0477042605A8048631
:1021A400049A0400000000E405B4057F0552057696
:1021B40005620553050D0A006E616E00696E6600C6
:1021C4006F76660048756D69646974792F54656D1E
:1021D40070657261747572652052656164696E67B9
:1021E400733A0048756D69646974793A2000250072
:1021F40054656D70657261747572653A200020646F
:08220400656772656573000057
:00000001FF
