:100000000C9463000C948B000C948B000C948B006C
:100010000C948B000C948B000C948B000C9460055A
:100020000C948B000C948B000C948B000C948B0024
:100030000C948B000C948B000C948B000C948B0014
:100040000C9416050C948B000C942B060C9405064E
:100050000C948B000C948B000C948B000C948B00F4
:100060000C948B000C948B000200000000230026EF
:10007000002900000000080002010000030407003E
:100080000000000000000000000000250028002BF8
:100090000000000000240027002A000404040404D7
:1000A0000404040202020202020303030303030125
:1000B00002040810204080010204081020010204FC
:1000C00008102000400711241FBECFEFD8E0DEBF8C
:1000D000CDBF11E0A0E0B1E0EAEAFFE002C0059088
:1000E0000D92A631B107D9F721E0A6E1B1E001C038
:1000F0001D92A13DB207E1F710E0C3E6D0E004C0D5
:100100002197FE010E94B907C236D107C9F70E94A4
:100110005D060C94D3070C940000833081F028F422
:10012000813099F08230A1F008958730A9F08830AD
:10013000B9F08430D1F4809180008F7D03C080912C
:1001400080008F7780938000089584B58F7702C0F8
:1001500084B58F7D84BD08958091B0008F7703C0F2
:100160008091B0008F7D8093B0000895CF93DF938E
:1001700090E0FC01E155FF4F2491FC01E556FF4F53
:100180008491882361F190E0880F991FFC01EF565C
:10019000FF4FC591D491FC01E957FF4FA591B49150
:1001A000611109C09FB7F8948881209582238883C4
:1001B000EC912E230BC0623061F49FB7F894388124
:1001C000822F809583238883EC912E2B2C939FBFC5
:1001D00006C08FB7F894E8812E2B28838FBFDF915C
:1001E000CF9108953FB7F8948091300190913101FB
:1001F000A0913201B091330126B5A89B05C02F3FD5
:1002000019F00196A11DB11D3FBFBA2FA92F982F3C
:100210008827820F911DA11DB11DBC01CD0142E0B7
:10022000660F771F881F991F4A95D1F708958F92FF
:100230009F92AF92BF92CF92DF92EF92FF926B01AB
:100240007C010E94F2004B015C01C114D104E10465
:10025000F104F1F00E94F200DC01CB018819990948
:10026000AA09BB09883E9340A105B10570F321E0BE
:10027000C21AD108E108F10888EE880E83E0981EC2
:10028000A11CB11CC114D104E104F10419F7DDCFA4
:10029000FF90EF90DF90CF90BF90AF909F908F90A6
:1002A00008953F924F925F926F927F928F929F92AA
:1002B000AF92BF92CF92DF92EF92FF920F931F9374
:1002C000CF93DF9300D000D0CDB7DEB7909100017F
:1002D000981721F09F3F09F036C204C0E8E6F0E02D
:1002E000349081C080930001E8E6F0E0E491EF3FB4
:1002F00009F429C2E13031F1E23009F44BC0E111D7
:1003000071C014BC15BC94B5926094BD95B5916054
:1003100095BDA82FB0E0FD01E556FF4FE491F0E058
:10032000EE0FFF1FE957FF4F0591149110931B012A
:1003300000931A01FD01E155FF4FE491E09319018B
:10034000312C53C010928000109281009091810056
:1003500098609093810090918100916090938100CA
:10036000A82FB0E0FD01E556FF4FE491F0E0EE0F5D
:10037000FF1FE957FF4F0591149110931801009347
:100380001701FD01E155FF4FE491E093160133247D
:1003900033942BC01092B0001092B1009091B00035
:1003A00092609093B0009091B10091609093B100F1
:1003B000A82FB0E0FD01E556FF4FE491F0E0EE0F0D
:1003C000FF1FE957FF4F05911491109325010093EA
:1003D0002401FD01E155FF4FE491E093260102E085
:1003E000302E03C03E2E37FCAEC129013A018B01ED
:1003F00061E00E94B6004801A12CB12C832D8D7FB5
:1004000009F0BBC060E072E18AE790E0A5019401C9
:100410000E948F0729833A834B835C8369017A01A9
:1004200021E0C21AD108E108F1088FEFC816D10403
:10043000E104F10409F008F44CC060E472E48FE0D8
:1004400090E0A50194010E948F0769017A01E1E023
:10045000CE1AD108E108F108F2E03F1220C02FEFD8
:10046000C216D104E104F10409F008F46AC160E99C
:1004700070ED83E090E0A50194010E948F0769016F
:100480007A0181E0C81AD108E108F108EFEFCE1631
:10049000D104E104F10409F0D0F583E067C0FFEF77
:1004A000CF16D104E104F104B1F0A8F068E478EECD
:1004B00081E090E0A50194010E948F0769017A0113
:1004C00081E0C81AD108E108F108332009F4DFC03F
:1004D0002FC181E001C082E03320A1F047C08981B3
:1004E0009A81AB81BC812AE0B595A79597958795B0
:1004F0002A95D1F76C017D0121E0C21AD108E108EB
:10050000F10885E095B5987F892B85BD6FC068E4BB
:1005100078EE81E090E0A50194010E948F076901C7
:100520007A01F1E0CF1AD108E108F1082FEFC216E5
:10053000D104E104F10409F008F4A7C064E274EF07
:1005400080E090E0A50194010E948F0769017A0183
:10055000E1E0CE1AD108E108F108FFEFCF16D1048F
:10056000E104F10411F008F0B4C085E09091B1000D
:10057000987F892B8093B10039C060E072E18AE7EF
:1005800090E0A50194010E948F0769017A0181E042
:10059000C81AD108E108F108C114D104E1E0EE065F
:1005A000F10488F068E478EE81E090E0A501940120
:1005B0000E948F0769017A01F1E0CF1AD108E108A2
:1005C000F10893E001C091E021E032120FC0809168
:1005D0008100887F892B809381004114510461043C
:1005E000710449F42FEF3FEFA9012DC041145104CC
:1005F0006104710471F0D801AA0FBB1FA30192011D
:100600000E94AE0728EE33E040E050E00E946D0704
:1006100003C02FEF3FEFA90181E03816A1F0E2E01F
:100620003E1619F131108FC0C7BC209320013093C2
:100630002101409322015093230180916E0082603A
:1006400080936E0080C0D0928900C0928800209371
:100650001C0130931D0140931E0150931F01809196
:100660006F00826080936F006EC0C092B3002093D1
:100670002701309328014093290150932A0180914A
:1006800070008260809370005EC084E06FCFFFEFE7
:10069000CF16D104E104F104D1F0C8F062E17AE7A9
:1006A00080E090E0A50194010E948F0769017A0122
:1006B00081E0C81AD108E108F108EFEFCE16D104A5
:1006C000E104F10411F008F00ACF84E01BCF83E0CD
:1006D00019CF62E17AE780E090E0A50194010E94E1
:1006E0008F0769017A0181E0C81AD108E108F10891
:1006F000EFEFCE16D104E104F104C1F0B8F0898126
:100700009A81AB81BC814AE0B595A795979587956D
:100710004A95D1F76C017D0121E0C21AD108E108A8
:10072000F108332009F4EDCE87E020CF86E0D4CE67
:10073000FFEFCF16D104E104F10409F050F684E094
:10074000CBCE82E013CF0F900F900F900F90DF91E0
:10075000CF911F910F91FF90EF90DF90CF90BF90BE
:10076000AF909F908F907F906F905F904F903F9051
:100770000895CF92DF92EF92FF920F931F93CF9342
:10078000DF936C017A018B01C0E0D0E0CE15DF056C
:1007900089F0D8016D918D01D601ED91FC91019008
:1007A000F081E02DC6010995892B11F47E0102C06C
:1007B0002196ECCFC701DF91CF911F910F91FF9050
:1007C000EF90DF90CF900895089580E090E0089535
:1007D000FC01538D448D252F30E0842F90E0821B47
:1007E000930B541710F0CF96089501970895FC01CC
:1007F000918D828D981761F0828DDF01A80FB11D58
:100800005D968C91928D9F5F9F73928F90E008957B
:100810008FEF9FEF0895FC01918D828D981731F035
:10082000828DE80FF11D858D90E008958FEF9FEF89
:100830000895FC01918D228D892F90E0805C9F4F5F
:10084000821B91098F739927089584E391E00E9498
:10085000190421E0892B09F420E0822F0895FC017E
:10086000848DDF01A80FB11DA35ABF4F2C91848D39
:1008700090E001968F739927848FA689B7892C936E
:10088000A089B1898C9180648C93938D848D981309
:1008900006C00288F389E02D80818F7D80830895D2
:1008A000EF92FF920F931F93CF93DF93EC0181E0C0
:1008B000888F9B8D8C8D981305C0E889F98980817C
:1008C00085FD24C0F62E0B8D10E00F5F1F4F0F73B8
:1008D0001127E02E8C8DE8120CC00FB607FCFACF62
:1008E000E889F989808185FFF5CFCE010E942F0428
:1008F000F1CF8B8DFE01E80FF11DE35AFF4FF0821F
:100900000B8FEA89FB898081806207C0EE89FF89AD
:100910006083E889F98980818064808381E090E048
:10092000DF91CF911F910F91FF90EF900895CF939A
:10093000DF93EC01888D8823C9F0EA89FB898081E7
:1009400085FD05C0A889B9898C9186FD0FC00FB6B9
:1009500007FCF5CF808185FFF2CFA889B9898C91FA
:1009600085FFEDCFCE010E942F04E7CFDF91CF911D
:10097000089580E090E0892B29F00E9425048111E0
:100980000C94000008958F929F92AF92BF920F93A4
:100990001F93CF93DF93CDB7DEB7A1970FB6F8942F
:1009A000DEBF0FBECDBF19A2423008F44AE08E016F
:1009B0000F5D1F4F842E912CA12CB12CA501940109
:1009C0000E946D07E62FB901CA0101501109EA30F2
:1009D00014F4E05D01C0E95CD801EC93232B242BD7
:1009E000252B61F70115110571F0F8010190002028
:1009F000E9F73197AF01401B510BB80184E391E057
:100A00000E94B90302C080E090E0A1960FB6F8946E
:100A1000DEBF0FBECDBFDF91CF911F910F91BF9071
:100A2000AF909F908F9008950E94CE071F920F92D3
:100A30000FB60F9211242F933F938F939F93AF93F1
:100A4000BF9380912C0190912D01A0912E01B09126
:100A50002F0130912B0123E0230F2D3720F4019635
:100A6000A11DB11D05C026E8230F0296A11DB11DD1
:100A700020932B0180932C0190932D01A0932E01A4
:100A8000B0932F018091300190913101A0913201FA
:100A9000B09133010196A11DB11D80933001909357
:100AA0003101A0933201B0933301BF91AF919F9177
:100AB0008F913F912F910F900FBE0F901F9018951F
:100AC0001F920F920FB60F9211242F933F934F93C3
:100AD0005F936F937F938F939F93AF93BF93CF93C6
:100AE000DF93EF93FF938091270190912801A091CC
:100AF0002901B0912A01892B8A2B8B2B59F18091E6
:100B00002601E0912401F0912501908189278083BD
:100B10008091270190912801A0912901B0912A018B
:100B2000181619061A061B060CF05CC080912701E6
:100B300090912801A0912901B0912A010197A10962
:100B4000B1098093270190932801A0932901B093C4
:100B50002A0148C020910001E8E6F0E0E4918FEF1F
:100B600080930001E130B9F098F0E230C9F480914F
:100B700070008D7F8093700081E08093B000809141
:100B8000B100887F84608093B1001092B30008C0E8
:100B900010926E0005C080916F008D7F80936F0072
:100BA00030E0F901ED58FF4F8491F901E155FF4F15
:100BB000D491F901E556FF4FC491CC2399F08111EE
:100BC0000E948D00EC2FF0E0EE0FFF1FE957FF4F62
:100BD000A591B4918FB7F8949C91ED2FE095E923FE
:100BE000EC938FBFFF91EF91DF91CF91BF91AF91C8
:100BF0009F918F917F916F915F914F913F912F9135
:100C00000F900FBE0F901F9018951F920F920FB666
:100C10000F9211242F933F934F935F936F937F9382
:100C20008F939F93AF93BF93EF93FF9384E391E0F0
:100C30000E942F04FF91EF91BF91AF919F918F91EF
:100C40007F916F915F914F913F912F910F900FBEC8
:100C50000F901F9018951F920F920FB60F921124AC
:100C60002F938F939F93EF93FF93E0914401F09123
:100C700045018081E0914A01F0914B0182FD12C053
:100C8000908180914D018F5F8F7320914E0182176B
:100C900051F0E0914D01F0E0EC5CFE4F958F8093B8
:100CA0004D0101C08081FF91EF919F918F912F9114
:100CB0000F900FBE0F901F901895789484B58260A6
:100CC00084BD84B5816084BD85B5826085BD85B5F0
:100CD000816085BD80916E00816080936E0010926E
:100CE00081008091810082608093810080918100E9
:100CF000816080938100809180008160809380007A
:100D00008091B10084608093B1008091B0008160D7
:100D10008093B00080917A00846080937A00809103
:100D20007A00826080937A0080917A00816080935B
:100D30007A0080917A00806880937A001092C100D6
:100D400028EE33E040E050E068EB7BE084E00E9476
:100D5000510168EE73E080E090E00E94170160E0CE
:100D600083E00E94B60061E082E00E94B600E0915C
:100D70004401F091450182E08083E0914001F091CF
:100D800041011082E0914201F09143018FEC808398
:100D900010924C01E0914801F091490186E0808376
:100DA000E0914601F0914701808180618083E0916C
:100DB0004601F0914701808188608083E09146017F
:100DC000F0914701808180688083E0914601F09135
:100DD000470180818F7D8083C6E7D0E002EB10E081
:100DE0003EE9E32E30E0F32E28E030E040E050E032
:100DF00060E774E982E00E94510161E070E080E008
:100E000090E00E941701FE018491F801C490F7015F
:100E1000D490DD20A9F081110E948D008D2D90E0ED
:100E2000880F991F87599F4FFC01A591B4918C9110
:100E3000C82291E080E009F490E0C92ED82E02C0CB
:100E4000C12CD12C61E070E080E090E00E9417019D
:100E5000B601DD0C880B990B4AE00E94C30442E006
:100E600050E063E171E084E391E00E94B90364E63D
:100E700070E080E090E00E9417010E94B904B4CFB6
:100E8000E4E3F1E01382128288EE93E0A0E0B0E0A8
:100E900084839583A683B78385E091E091838083E3
:100EA00085EC90E09587848784EC90E0978786872F
:100EB00080EC90E0918B808B81EC90E0938B828B27
:100EC00082EC90E0958B848B86EC90E0978B868B00
:100ED000118E128E138E148E0895A1E21A2EAA1B63
:100EE000BB1BFD010DC0AA1FBB1FEE1FFF1FA217DA
:100EF000B307E407F50720F0A21BB30BE40BF50BD7
:100F0000661F771F881F991F1A9469F7609570955F
:100F1000809590959B01AC01BD01CF010895052EF0
:100F200097FB1EF400940E94A60757FD07D00E946D
:100F30006D0707FC03D04EF40C94A607509540951E
:100F4000309521953F4F4F4F5F4F08959095809575
:100F5000709561957F4F8F4F9F4F08950E94BF07F7
:100F6000A59F900DB49F900DA49F800D911D1124FD
:100F70000895EE0FFF1F0590F491E02D0994A29FB4
:100F8000B001B39FC001A39F700D811D1124911D5D
:100F9000B29F700D811D1124911D089581E090E094
:0A0FA000F8940C94D307F894FFCFE7
:100FAA00FF000000005004B903E80397041904F78E
:060FBA00030B040D0A0008
:00000001FF
