:100000000C9463000C948B000C948B000C948B006C
:100010000C948B000C948B000C948B000C948C082B
:100020000C948B000C948B000C948B000C94660940
:100030000C948B000C948B000C948B000C948B0014
:100040000C9442080C948B000C9434090C940E0907
:100050000C948B000C948B000C948B000C948B00F4
:100060000C948B000C948B000200000000240027ED
:10007000002A0000000000250028002B00000000DE
:100080000800020100000304070000000000000057
:1000900000000000002300260029000404040404DA
:1000A0000404040202020202020303030303030125
:1000B00002040810204080010204081020010204FC
:1000C00008102000270A11241FBECFEFD8E0DEBFA2
:1000D000CDBF11E0A0E0B1E0EAE5FDE102C005908E
:1000E0000D92A232B107D9F722E0A2E2B1E001C03D
:1000F0001D92AF31B207E1F710E0C3E6D0E004C0D3
:100100002197FE010E94A00EC236D107C9F70E94B6
:10011000BC0A0C94AB0E0C9400008F929F92AF928D
:10012000BF92CF92DF92EF92FF92CF93DF93A09195
:100130001402882311F03A2F01C030E0809115029B
:1001400090E0880F991F8F569F4FC0901A02D09051
:100150001B02E0901C02F0901D0240E050E0BA014A
:10016000FC01C591D49128812A2323130FC04A0191
:100170005B012FEF821A920AA20AB20A4C155D05A2
:100180006E057F0538F4B501A401EACF342F252F81
:10019000CB0104C030E020E080E090E0632F722FBC
:1001A000DF91CF91FF90EF90DF90CF90BF90AF9015
:1001B0009F908F900895833081F028F4813099F0DA
:1001C0008230A1F008958730A9F08830B9F08430EA
:1001D000D1F4809180008F7D03C0809180008F7763
:1001E00080938000089584B58F7702C084B58F7D99
:1001F00084BD08958091B0008F7703C08091B000D6
:100200008F7D8093B0000895CF93DF93282F30E047
:10021000F901E358FF4F8491F901E155FF4FD49163
:10022000F901E556FF4FC491CC2391F081110E9452
:10023000DB00EC2FF0E0EE0FFF1FEF56FF4FA59114
:10024000B491EC91ED2381E090E021F480E002C0D4
:1002500080E090E0DF91CF9108951F93CF93DF93DB
:10026000282F30E0F901E358FF4F8491F901E1555F
:10027000FF4FD491F901E556FF4FC491CC23C9F04B
:10028000162F81110E94DB00EC2FF0E0EE0FFF1F14
:10029000ED58FF4FA591B4918FB7F894111105C097
:1002A0009C91ED2FE095E92302C0EC91ED2BEC93AE
:1002B0008FBFDF91CF911F910895CF93DF9390E08F
:1002C000FC01E155FF4F2491FC01E556FF4F84915D
:1002D000882361F190E0880F991FFC01E759FF4FD7
:1002E000C591D491FC01ED58FF4FA591B4916111D6
:1002F00009C09FB7F8948881209582238883EC9168
:100300002E230BC0623061F49FB7F8943881822F9E
:10031000809583238883EC912E2B2C939FBF06C05E
:100320008FB7F894E8812E2B28838FBFDF91CF9170
:1003300008953FB7F89480913D0190913E01A091BE
:100340003F01B091400126B5A89B05C02F3F19F091
:100350000196A11DB11D3FBFBA2FA92F982F882745
:10036000820F911DA11DB11DBC01CD0142E0660FA0
:10037000771F881F991F4A95D1F708958F929F92F2
:10038000AF92BF92CF92DF92EF92FF926B017C010E
:100390000E9499014B015C01C114D104E104F104F4
:1003A000F1F00E949901DC01CB0188199909AA0991
:1003B000BB09883E9340A105B10570F321E0C21A44
:1003C000D108E108F10888EE880E83E0981EA11C90
:1003D000B11CC114D104E104F10419F7DDCFFF9081
:1003E000EF90DF90CF90BF90AF909F908F90089547
:1003F000CF92DF92EF92FF920F931F93CF93DF93F1
:10040000CDB7DEB7C054D1400FB6F894DEBF0FBEF3
:10041000CDBF2FB7F8948091410190914201A091F6
:100420004301B09144012FBF409116025091170231
:1004300060911802709119028C019D01041B150B2B
:10044000260B370BB901A801403D574061057105E6
:1004500018F480911E02BCC080931602909317027C
:10046000A0931802B0931902109211021092100278
:1004700010920F0210920E0210920D0261E0809114
:1004800012020E942D016AEF70E080E090E00E946D
:10049000BE0161E0809112020E945D0160E08091E6
:1004A00012020E942D0164E170E080E090E00E9461
:1004B000BE01F89461E0809112020E942D018BE947
:1004C00090E00197F1F762E0809112020E945D01D5
:1004D00083E290E00197F1F780E00E948D00672BA6
:1004E000682B692B21F410921E0278943EC081E0A3
:1004F0000E948D00672B682B692BA9F38E010F5F7B
:100500001F4F6E012FEBC21A2EEFD20A780180E046
:100510000E948D00F701608371838283938381E061
:100520000E948D00F7016483758386839783F8E0CA
:10053000EF0EF11CEC14FD0451F7789420E030E04C
:10054000F8014081518162817381C480D580E68049
:10055000F780411551056105710529F0C114D104D9
:10056000E104F10421F410921E0280E031C0F9018F
:1005700083E0F595E7958A95E1F7E35FFD4F80818C
:10058000880F4C155D056E057F0508F4816080833A
:100590002F5F3F4F085F1F4F2832310589F62091AA
:1005A000110230E040910D0280910E0290E0840F24
:1005B000911D40910F02840F911D40911002840FF4
:1005C000911D99272817390771F681E080931E0243
:1005D000C05CDE4F0FB6F894DEBF0FBECDBFDF911B
:1005E000CF911F910F91FF90EF90DF90CF900895E2
:1005F0003F924F925F926F927F928F929F92AF92B3
:10060000BF92CF92DF92EF92FF920F931F93CF93FF
:10061000DF9300D000D0CDB7DEB7909100019817DE
:1006200021F09F3F09F036C204C0E8E6F0E03490C4
:1006300081C080930001E8E6F0E0E491EF3F09F427
:1006400029C2E13031F1E23009F44BC0E11171C04F
:1006500014BC15BC94B5926094BD95B5916095BDE0
:10066000A82FB0E0FD01E556FF4FE491F0E0EE0F5A
:10067000FF1FED58FF4F059114911093280100932F
:100680002701FD01E155FF4FE491E0932601312C54
:1006900053C0109280001092810090918100986068
:1006A0009093810090918100916090938100A82F98
:1006B000B0E0FD01E556FF4FE491F0E0EE0FFF1FC3
:1006C000ED58FF4F059114911093250100932401DB
:1006D000FD01E155FF4FE491E0932301332433946E
:1006E0002BC01092B0001092B1009091B0009260B7
:1006F0009093B0009091B10091609093B100A82FB9
:10070000B0E0FD01E556FF4FE491F0E0EE0FFF1F72
:10071000ED58FF4F05911491109332010093310170
:10072000FD01E155FF4FE491E093330102E0302EEB
:1007300003C03E2E37FCAEC129013A018B0161E0B6
:100740000E945D014801A12CB12C832D8D7F09F001
:10075000BBC060E072E18AE790E0A50194010E94CD
:100760006F0C29833A834B835C8369017A0121E012
:10077000C21AD108E108F1088FEFC816D104E104CC
:10078000F10409F008F44CC060E472E48FE090E0FA
:10079000A50194010E946F0C69017A01E1E0CE1A73
:1007A000D108E108F108F2E03F1220C02FEFC21695
:1007B000D104E104F10409F008F46AC160E970EDC4
:1007C00083E090E0A50194010E946F0C69017A0119
:1007D00081E0C81AD108E108F108EFEFCE16D10484
:1007E000E104F10409F0D0F583E067C0FFEFCF1614
:1007F000D104E104F104B1F0A8F068E478EE81E0FE
:1008000090E0A50194010E946F0C69017A0181E0DA
:10081000C81AD108E108F108332009F4DFC02FC15C
:1008200081E001C082E03320A1F047C089819A8134
:10083000AB81BC812AE0B595A795979587952A95B8
:10084000D1F76C017D0121E0C21AD108E108F1085D
:1008500085E095B5987F892B85BD6FC068E478EEFB
:1008600081E090E0A50194010E946F0C69017A017A
:10087000F1E0CF1AD108E108F1082FEFC216D10438
:10088000E104F10409F008F4A7C064E274EF80E029
:1008900090E0A50194010E946F0C69017A01E1E0EA
:1008A000CE1AD108E108F108FFEFCF16D104E10418
:1008B000F10411F008F0B4C085E09091B100987F88
:1008C000892B8093B10039C060E072E18AE790E043
:1008D000A50194010E946F0C69017A0181E0C81A98
:1008E000D108E108F108C114D104E1E0EE06F104F9
:1008F00088F068E478EE81E090E0A50194010E9420
:100900006F0C69017A01F1E0CF1AD108E108F10812
:1009100093E001C091E021E032120FC0809181008C
:10092000887F892B809381004114510461047104F4
:1009300049F42FEF3FEFA9012DC041145104610488
:10094000710471F0D801AA0FBB1FA30192010E948C
:100950008E0C28EE33E040E050E00E94990C03C07A
:100960002FEF3FEFA90181E03816A1F0E2E03E163B
:1009700019F131108FC0C7BC20932D0130932E0187
:1009800040932F015093300180916E0082608093DC
:100990006E0080C0D0928900C09288002093290107
:1009A00030932A0140932B0150932C0180916F00CA
:1009B000826080936F006EC0C092B30020933401B8
:1009C0003093350140933601509337018091700088
:1009D0008260809370005EC084E06FCFFFEFCF161F
:1009E000D104E104F104D1F0C8F062E17AE780E0DB
:1009F00090E0A50194010E946F0C69017A0181E0E9
:100A0000C81AD108E108F108EFEFCE16D104E104CD
:100A1000F10411F008F00ACF84E01BCF83E019CF76
:100A200062E17AE780E090E0A50194010E946F0CFA
:100A300069017A0181E0C81AD108E108F108EFEFF5
:100A4000CE16D104E104F104C1F0B8F089819A8195
:100A5000AB81BC814AE0B595A795979587954A9556
:100A6000D1F76C017D0121E0C21AD108E108F1083B
:100A7000332009F4EDCE87E020CF86E0D4CEFFEF1F
:100A8000CF16D104E104F10409F050F684E0CBCE96
:100A900082E013CF0F900F900F900F90DF91CF91C6
:100AA0001F910F91FF90EF90DF90CF90BF90AF908C
:100AB0009F908F907F906F905F904F903F900895A0
:100AC000CF92DF92EF92FF920F931F93CF93DF931A
:100AD0006C017A018B01C0E0D0E0CE15DF0589F012
:100AE000D8016D918D01D601ED91FC910190F081BD
:100AF000E02DC6010995892B11F47E0102C02196D3
:100B0000ECCFC701DF91CF911F910F91FF90EF9034
:100B1000DF90CF900895089580E090E00895FC0163
:100B2000538D448D252F30E0842F90E0821B930B52
:100B3000541710F0CF96089501970895FC01918DF8
:100B4000828D981761F0828DDF01A80FB11D5D962F
:100B50008C91928D9F5F9F73928F90E008958FEF9D
:100B60009FEF0895FC01918D828D981731F0828D51
:100B7000E80FF11D858D90E008958FEF9FEF0895A8
:100B8000FC01918D228D892F90E0805C9F4F821B0C
:100B900091098F739927089585E491E00E94C0051B
:100BA00021E0892B09F420E0822F0895FC01848D37
:100BB000DF01A80FB11DA35ABF4F2C91848D90E087
:100BC00001968F739927848FA689B7892C93A08962
:100BD000B1898C9180648C93938D848D981306C019
:100BE0000288F389E02D80818F7D80830895EF92C4
:100BF000FF920F931F93CF93DF93EC0181E0888FD7
:100C00009B8D8C8D981305C0E889F989808185FDBD
:100C100024C0F62E0B8D10E00F5F1F4F0F731127AE
:100C2000E02E8C8DE8120CC00FB607FCFACFE889D5
:100C3000F989808185FFF5CFCE010E94D605F1CFDD
:100C40008B8DFE01E80FF11DE35AFF4FF0820B8FF1
:100C5000EA89FB898081806207C0EE89FF89608311
:100C6000E889F98980818064808381E090E0DF9168
:100C7000CF911F910F91FF90EF900895CF93DF9345
:100C8000EC01888D8823C9F0EA89FB89808185FD84
:100C900005C0A889B9898C9186FD0FC00FB607FCE5
:100CA000F5CF808185FFF2CFA889B9898C9185FF26
:100CB000EDCFCE010E94D605E7CFDF91CF91089509
:100CC00080E090E0892B29F00E94CC0581110C94E2
:100CD00000000895FC0190819C3080F5818128E816
:100CE00030E0281B310987FD3395220F331F220F77
:100CF000331F621773077CF0828128E532E0281BDE
:100D0000310987FD3395220F331F220F331F6217DE
:100D100073070CF49B0122503109220F331F4FB788
:100D2000F894892F90E0FC01EE0FFF1F8E0F9F1F9C
:100D3000FC01EE51FE4F328321834FBF08951F9374
:100D4000CF93DF93EC01162F88818C3008F04EC0D2
:100D500061E0812F0E945D018881E82FF0E09F0112
:100D6000220F331FE20FF31FEE51FE4F1F739081CE
:100D7000907C192B108319821A826CE00E94940EC9
:100D80009CE0899FB001112440E050E09A01260FB9
:100D9000371FF901EE0FFF1F2E0F3F1FF901EE5114
:100DA000FE4F908196FD16C04F5F5F4F4C3051054E
:100DB00069F781110FC01092800082E0809381005A
:100DC0001092850010928400B19A80916F00826029
:100DD00080936F00E881F0E0CF01880F991FE80F42
:100DE000F91FEE51FE4F8081806480838881DF91FE
:100DF000CF911F910895CF93DF93EB01BC01645213
:100E00007A4F8AE092E00E946A068CED95E0BC0180
:100E10006C1B7D0B87E092E00E946A0664E170E043
:100E200080E090E0DF91CF910C94BE01009769F0D3
:100E3000FC0101900020E9F73197AF01481B590BE5
:100E4000BC0185E491E00C94600580E090E0089599
:100E50008F929F92AF92BF920F931F93CF93DF9386
:100E6000CDB7DEB7A1970FB6F894DEBF0FBECDBFEA
:100E700019A2423008F44AE08E010F5D1F4F842E04
:100E8000912CA12CB12CA50194010E94990CE62F64
:100E9000B901CA0101501109EA3014F4E05D01C042
:100EA000E95CD801EC93232B242B252B61F7C80197
:100EB0000E941607A1960FB6F894DEBF0FBECDBFF5
:100EC000DF91CF911F910F91BF90AF909F908F9026
:100ED00008954F925F926F927F928F929F92AF92FE
:100EE000BF92CF92DF92EF92FF926B017C019B0148
:100EF000AC010E948F0E882319F083E191E01AC0A3
:100F000046015701E894B7F82FEF3FEF4FE75FE74F
:100F1000C501B4010E948F0E811110C02FEF3FEF69
:100F20004FE75FE7C501B4010E94370D181634F48E
:100F300087E191E00E9416077C018FC02FEF3FEF01
:100F40004FE75FE4C701B6010E941D0E18161CF49E
:100F50008BE191E0EFCF2FEF3FEF4FE75FECC70161
:100F6000B6010E94370D87FDF3CF20E030E0A901E4
:100F7000C701B6010E94370D87FF11C0E0914501FE
:100F8000F09146010190F081E02D6DE285E491E061
:100F900009955C01F7FAF094F7F8F09402C0A12CDF
:100FA000B12C2AE037ED43EA5BE3C701B6010E94AA
:100FB000CB0C2B013C010E943C0D6B017C010E947B
:100FC0006B0D9B01AC01C301B2010E94CA0C2B0145
:100FD0003C014AE0C701B6010E9428077C01EA0CE7
:100FE000FB1CE0914501F09146010190F081E02D5C
:100FF0006EE285E491E00995E80EF91E20E030E00C
:1010000040E251E4C301B2010E94220E2B013C01D7
:101010000E943C0D4B01A12CB12C4AE0C501B4014A
:101020000E942807E80EF91EC501B4010E946B0D4D
:101030009B01AC01C301B2010E94CA0C20E030E068
:1010400040E251E40E94220E0E943C0D80E090E0BC
:101050004AE00E942807E80EF91E8FE191E00E9405
:1010600016078E0D9F1DFF90EF90DF90CF90BF90E1
:10107000AF909F908F907F906F905F904F9008956A
:101080000E94A60E1F920F920FB60F9211242F935B
:101090003F938F939F93AF93BF9380914101909122
:1010A0004201A0914301B091440130913C0123E001
:1010B000230F2D3720F40196A11DB11D05C026E890
:1010C000230F0296A11DB11D20933C018093410185
:1010D00090934201A0934301B093440180913D015C
:1010E00090913E01A0913F01B09140010196A11D58
:1010F000B11D80933D0190933E01A0933F01B093B9
:101100004001BF91AF919F918F913F912F910F908F
:101110000FBE0F901F9018951F920F920FB60F924F
:1011200011242F933F934F935F936F937F938F93EC
:101130009F93AF93BF93EF93FF938091340190916E
:101140003501A0913601B0913701892B8A2B8B2B69
:1011500059F180913301E0913101F0913201908198
:10116000892780838091340190913501A0913601C7
:10117000B0913701181619061A061B060CF03DC06F
:101180008091340190913501A0913601B0913701E1
:101190000197A109B1098093340190933501A0937F
:1011A0003601B093370129C080910001E8E6F0E0F4
:1011B000E4919FEF90930001E130B9F098F0E230B4
:1011C000C9F4909170009D7F9093700091E090938E
:1011D000B0009091B100987F94609093B10010920C
:1011E000B30008C010926E0005C090916F009D7F03
:1011F00090936F0060E00E942D01FF91EF91BF91ED
:10120000AF919F918F917F916F915F914F913F919E
:101210002F910F900FBE0F901F9018951F920F9255
:101220000FB60F9211242F933F934F935F936F93B9
:101230007F938F939F93AF93BF93EF93FF9385E437
:1012400091E00E94D605FF91EF91BF91AF919F91E0
:101250008F917F916F915F914F913F912F910F905F
:101260000FBE0F901F9018951F920F920FB60F92FE
:1012700011242F938F939F93EF93FF93E091550148
:10128000F09156018081E0915B01F0915C0182FD5B
:1012900012C0908180915E018F5F8F7320915F01FA
:1012A000821751F0E0915E01F0E0EB5BFE4F958F0D
:1012B00080935E0101C08081FF91EF919F918F919A
:1012C0002F910F900FBE0F901F9018951F920F92A5
:1012D0000FB60F9211242F933F934F935F936F9309
:1012E0007F938F939F93AF93BF93EF93FF938091DF
:1012F000220187FF05C010928500109284001BC058
:1013000020912201022E000C330B8091060290E006
:101310002817390784F480912201082E000C990BBC
:10132000FC01EE0FFF1F8E0F9F1FFC01EE51FE4FC1
:10133000808186FD15C0809122018F5F80932201FC
:1013400020912201022E000C330B8091060290E0C6
:1013500028173907C4F4809122018C3064F113C03E
:1013600080912201082E000C990BFC01EE0FFF1F4B
:101370008E0F9F1FFC01EE51FE4F808160E08F7346
:101380000E942D01D8CF8091840090918500049611
:1013900080349C4918F480E49CE905C08091840065
:1013A00090918500049690938900809388008FEF38
:1013B000809322013BC02091840030918500809170
:1013C0002201082E000C990BFC01EE0FFF1F8E0F5F
:1013D0009F1FFC01EE51FE4F81819281820F931F6E
:1013E000909389008093880080912201082E000C40
:1013F000990BFC01EE0FFF1F8E0F9F1FFC01EE519A
:10140000FE4F808186FF12C080912201082E000CC1
:10141000990BFC01EE0FFF1F8E0F9F1FFC01EE5179
:10142000FE4F808161E08F730E942D01FF91EF914B
:10143000BF91AF919F918F917F916F915F914F91EC
:101440003F912F910F900FBE0F901F901895109203
:1014500048011092470188EE93E0A0E0B0E080934D
:10146000490190934A01A0934B01B0934C0185E050
:1014700091E0909346018093450185EC90E0909334
:1014800052018093510184EC90E090935401809339
:10149000530180EC90E0909356018093550181ECCC
:1014A00090E0909358018093570182EC90E09093E4
:1014B0005A018093590186EC90E090935C018093EF
:1014C0005B0110925E0110925F0110926001109218
:1014D000610186E08093120286E180931302E5EBBE
:1014E000F0E0E491E0931402E1EAF0E0E491E093AB
:1014F000150280E89EE3A0E0B0E080931A0290938A
:101500001B02A0931C02B0931D02809106028C3036
:10151000A0F491E0980F9093060280930A0290E065
:10152000FC01EE0FFF1F8E0F9F1FFC01EE51FE4FBF
:1015300088EB9BE09283818303C08FEF80930A0244
:10154000809106028C30A0F491E0980F90930602EF
:101550008093070290E0FC01EE0FFF1F8E0F9F1F8C
:10156000FC01EE51FE4F88EB9BE09283818308954E
:101570008FEF809307020895789484B5826084BDCC
:1015800084B5816084BD85B5826085BD85B5816087
:1015900085BD80916E00816080936E001092810005
:1015A00080918100826080938100809181008160C0
:1015B0008093810080918000816080938000809181
:1015C000B10084608093B1008091B000816080930D
:1015D000B00080917A00846080937A0080917A00D4
:1015E000826080937A0080917A00816080937A0093
:1015F00080917A00806880937A001092C100E09117
:101600005501F091560182E08083E0915101F09103
:1016100052011082E0915301F09154018FEC8083CC
:1016200010925D01E0915901F0915A0186E08083AA
:10163000E0915701F0915801808180618083E091B1
:101640005701F0915801808188608083E0915701B3
:10165000F0915801808180688083E0915701F0917A
:10166000580180818F7D808362E0809112020E9408
:101670005D0180E398EFAFEFBFEF80931602909388
:101680001702A0931802B093190260E08AE10E9449
:101690002D0160E08BE10E942D016DE070E08AE099
:1016A00092E00E949F066CE070E087E092E00E946A
:1016B0009F0661E082E00E945D0161E089E00E9496
:1016C0005D0160E083E00E945D0160E08AE00E94CD
:1016D0005D0161E087E00E945D010E94F8018823BE
:1016E000B1F1809113028B3041F188F18551823044
:1016F00070F560910D0270E080E090E00E946B0D4B
:1017000020E030E040E853E40E94220E6B017C01AF
:1017100080910E02682F70E080E090E00E946D0DD5
:101720009B01AC01C701B6010E94CB0C2DEC3CEC37
:101730004CEC5DE30E94220E07C060910D0270E048
:1017400080E090E00E946B0D4B015C0106C0812C93
:10175000912C90ECA92E9FE7B92E0E94F8018823C6
:1017600009F441C0809113028B3029F0E0F18551DA
:10177000823058F038C060910F0270E080E090E055
:101780000E946B0D6B017C0134C0C0910F026C2F65
:101790006F7770E080E090E00E946D0D20E030E017
:1017A00040E853E40E94220E6B017C0180911002FC
:1017B000682F70E080E090E00E946D0D9B01AC010D
:1017C000C701B6010E94CB0C2DEC3CEC4CEC5DE368
:1017D0000E94220E6B017C01C7FF0BC0F7FAF09448
:1017E000F7F8F09406C0C12CD12C80ECE82E8FE7DE
:1017F000F82EC501B4010E946907C701B6010E9415
:10180000690720E030E048EC51E4C701B6010E94CE
:101810001D0E181614F461E001C060E087E00E941C
:101820002D0128E030E040E050E060E774E982E01C
:101830000E94F80261E070E080E090E00E94BE014A
:1018400083E00E9404016C0161E070E080E090E0C0
:101850000E94BE01D0923B01C0923A0128E030E0E4
:1018600040E050E060E774E989E00E94F80261E03E
:1018700070E080E090E00E94BE018AE00E940401D6
:101880007C0161E070E080E090E00E94BE01F09297
:101890003901E092380181E0C816D10439F481E0C1
:1018A000E816F10489F460E870E012C0EF2829F42A
:1018B000CD2861F460E87FEF04C0CD2869F460E8CA
:1018C00070E080E89FEF06C0EF2831F460E87FEF1A
:1018D00080E890E00E94FB060E946006FECE052E86
:1018E00097FB1EF400940E94860C57FD07D00E94BF
:1018F000990C07FC03D04EF40C94860C509540953F
:10190000309521953F4F4F4F5F4F089590958095AB
:10191000709561957F4F8F4F9F4F08950E94BB0C2C
:10192000A59F900DB49F900DA49F800D911D112433
:101930000895A1E21A2EAA1BBB1BFD010DC0AA1F10
:10194000BB1FEE1FFF1FA217B307E407F50720F028
:10195000A21BB30BE40BF50B661F771F881F991FA3
:101960001A9469F760957095809590959B01AC01EC
:10197000BD01CF010895A29FB001B39FC001A39FF5
:10198000700D811D1124911DB29F700D811D1124B8
:10199000911D08955058BB27AA270E94E20C0C9471
:1019A000E30D0E94D50D38F00E94DC0D20F039F4D3
:1019B0009F3F19F426F40C94D20D0EF4E095E7FB4A
:1019C0000C94CC0DE92F0E94F40D58F3BA1762075E
:1019D00073078407950720F079F4A6F50C94160E8A
:1019E0000EF4E0950B2EBA2FA02D0B01B90190013A
:1019F0000C01CA01A0011124FF27591B99F0593F7E
:101A000050F4503E68F11A16F040A22F232F342FC5
:101A10004427585FF3CF469537952795A795F04013
:101A20005395C9F77EF41F16BA0B620B730B840B28
:101A3000BAF09150A1F0FF0FBB1F661F771F881FE0
:101A4000C2F70EC0BA0F621F731F841F48F4879538
:101A500077956795B795F7959E3F08F0B0CF93952A
:101A6000880F08F09927EE0F9795879508950E94A3
:101A7000A80D08F481E008950E94FC0D88F09F579E
:101A800098F0B92F9927B751B0F0E1F0660F771FA2
:101A9000881F991F1AF0BA95C9F714C0B13091F098
:101AA0000E94160EB1E008950C94160E672F782F41
:101AB0008827B85F39F0B93FCCF38695779567955D
:101AC000B395D9F73EF490958095709561957F4FC9
:101AD0008F4F9F4F0895E89409C097FB3EF490956F
:101AE0008095709561957F4F8F4F9F4F9923A9F0F7
:101AF000F92F96E9BB279395F69587957795679586
:101B0000B795F111F8CFFAF4BB0F11F460FF1BC0C9
:101B10006F5F7F4F8F4F9F4F16C0882311F096E95C
:101B200011C0772321F09EE8872F762F05C066230A
:101B300071F096E8862F70E060E02AF09A95660FC3
:101B4000771F881FDAF7880F9695879597F908957C
:101B5000990F0008550FAA0BE0E8FEEF16161706BE
:101B6000E807F907C0F012161306E407F50798F026
:101B7000621B730B840B950B39F40A2661F0232B3F
:101B8000242B252B21F408950A2609F4A140A695BB
:101B90008FEF811D811D089597F99F6780E870E0A0
:101BA00060E008959FEF80EC089500240A941616D3
:101BB000170618060906089500240A94121613063B
:101BC000140605060895092E0394000C11F48823C9
:101BD00052F0BB0F40F4BF2B11F460FF04C06F5FE5
:101BE0007F4F8F4F9F4F089557FD9058440F551FBB
:101BF00059F05F3F71F04795880F97FB991F61F08F
:101C00009F3F79F087950895121613061406551F05
:101C1000F2CF4695F1DF08C0161617061806991F71
:101C2000F1CF86957105610508940895E894BB2766
:101C300066277727CB0197F908950E94A80D08F42D
:101C40008FEF08950E94350E0C94E30D0E94D50D80
:101C500038F00E94DC0D20F0952311F00C94CC0D8F
:101C60000C94D20D11240C94170E0E94F40D70F3F5
:101C7000959FC1F3950F50E0551F629FF001729F31
:101C8000BB27F00DB11D639FAA27F00DB11DAA1F40
:101C9000649F6627B00DA11D661F829F2227B00D8D
:101CA000A11D621F739FB00DA11D621F839FA00D18
:101CB000611D221F749F3327A00D611D231F849F68
:101CC000600D211D822F762F6A2F11249F575040BF
:101CD0009AF0F1F088234AF0EE0FFF1FBB1F661F3A
:101CE000771F881F91505040A9F79E3F510580F003
:101CF0000C94CC0D0C94170E5F3FE4F3983ED4F394
:101D0000869577956795B795F795E7959F5FC1F7A6
:101D1000FE2B880F911D9695879597F908950E943F
:101D2000A80D880B990B0895991B79E004C0991FA1
:101D3000961708F0961B881F7A95C9F78095089525
:101D4000EE0FFF1F0590F491E02D099481E090E0E3
:0A1D5000F8940C94AB0EF894FFCF4A
:101D5A00FF00000000F70560058F053E06C0059EDE
:101D6A0005B2056E616E00696E66006F7666000DDB
:021D7A000A005D
:00000001FF
